:10000000B87300206D5100001550000069510000C8
:1000100069510000695100006951000069510000F8
:100020000000000000000000000000006951000016
:1000300069510000000000006951000079250000AE
:100040009D2D0000092D00003D2E0000892E00008E
:100050009D2D0000092D00003D2E0000892E00007E
:10006000213F00005D4000006D4800001D4200007F
:100070009D2D0000092D00003D2E0000892E00005E
:10008000214E0000000000005541000035390000FD
:100090001549000021490000B938000000000000A7
:1000A0000000000000000000000000000000000050
:1000B0000000000000000000000000000000000040
:1000C000FFFFFFFFFFFFFFFFFFFFFFFFFFFFFFFF40
:1000D000FFFFFFFFFFFFFFFFFFFFFFFFFFFFFFFF30
:10040000FFFFFFFFDFCEFFFFFCFF0F00FFFF0F002E
:10041000FCFF0F00FFFF0F00FCFF0F00FFFF0F00AE
:10042000FCFF0F20FFFF0F20FCFF7F40FFFF7F40FE
:10043000FCFF0D40FFFF0D40FFFFFFFFFFFFFFFF31
:10044000FFFFFFFFFFFFFFFFFFFFFFFFFFFFFFFFBC
:10045000FFFFFFFFFFFFFFFFFFFFFFFFFFFFFFFFAC
:10046000FFFFFFFFFFFFFFFFFFFFFFFFFFFFFFFF9C
:10047000FFFFFFFFFFFFFFFFFFFFFFFFFFFFFFFF8C
:10048000FFFFFFFFFFFFFFFFFFFFFFFFFFFFFFFF7C
:10049000FFFFFFFFFFFFFFFFFFFFFFFFFFFFFFFF6C
:1004A000FFFFFFFFFFFFFFFFFFFFFFFFFFFFFFFF5C
:1004B000FFFFFFFFFFFFFFFFFFFFFFFFFFFFFFFF4C
:1004C000FFFFFFFFFFFFFFFFFFFFFFFFFFFFFFFF3C
:1004D000FFFFFFFFFFFFFFFFFFFFFFFFFFFFFFFF2C
:1004E000FFFFFFFFFFFFFFFFFFFFFFFFFFFFFFFF1C
:1004F000FFFFFFFFFFFFFFFFFFFFFFFFFFFFFFFF0C
:1005000010B545F6A044C2F20004237863B940F266
:100510000003C0F200032BB14AF6A050C0F2000065
:1005200000E000BF0123237010BDC04640F200036D
:10053000C0F2000310B54BB145F6A4414AF6A050F5
:10054000C2F20001C0F2000000E000BF10BDC046D2
:1005500010B501F0F5FC01F053FD040090B14AF232
:1005600098101321C0F2000007F03CF94AF228204D
:100570002021C0F2000007F035F9012401F0B4FC9D
:10058000200010BD4AF2E0101721C0F2000007F071
:1005900029F94AF274202521C0F2000007F022F95F
:1005A000EEE7C04600B583B001F0CAFC01F028FDBB
:1005B000B0B14AF2B823C0F2000301934FF6FF73C3
:1005C000A421142000931022202301F0ABF84AF25A
:1005D00098103121C0F2000007F004F903B000BD0B
:1005E0004AF2CC23C0F2000301934FF6FF731022AE
:1005F0000093A4212023142001F094F84AF2E01083
:100600003621C0F2000007F0EDF8E7E7F8B50A245C
:100610000026002701F034FF02000B0030003900F3
:1006200004F098FE013CE4B206000F00002CF1D16A
:1006300000230022C4F2240305F0E6F948F6000383
:100640000022C4F2C30304000D0005F0F9FC06000B
:100650000F004BF6520045F2EB1122002B00C8F2BE
:100660001E50C4F20A0105F071FF02000B003000B9
:10067000390005F0C9F948F600030022C4F2C303AB
:1006800005F0C2F909F0AEFA4DF600430022C4F2BB
:10069000AE0305F0B9F94DF6833247F6E113CDF616
:1006A000B542C3F66B7304F055FE0B000021020047
:1006B000C3F6F071002005F0A7F946F2666241F238
:1006C0006623C6F26662C4F2710305F03FFF0023A1
:1006D0000022C3F6E07304F03DFE040002004AF27B
:1006E000E0200D000B00C0F200001E2107F07AF898
:1006F00029002000F8BDC04600B585B0FFF786FF91
:1007000000230022C4F2240305F09AFC09F0BEF98C
:1007100006F0AEFA0A2190FBF1F110238A0052187C
:1007200002931033019352000C3B821A009307206E
:1007300001F0EAF905B000BDF0B5C64600B586B0D7
:100740000300080001A98C464AF240316446C0F219
:100750000001E0C9E0C40D682560097921710A2A09
:100760002ED00024411E8846B3FBF2F615006146E8
:1007700075435D1B495D4546270001342955190025
:1007800033009142F0D200230022035582567910A3
:100790002D3A53425A41D3B28A420DDC461CFF180F
:1007A0007618C31841000024FA1A55561C571D70BC
:1007B00001335454B342F6D106B080BCB846F0BD04
:1007C000002BCEDA2D2101245B420170CAE7C0461E
:1007D00070B50400082516E045F6E050002240F20E
:1007E0000111C2F2000003F0F1F845F6E050013DBE
:1007F000012240F202116400C2F20000EDB203F0E7
:10080000E5F8E4B2ADB145F6E050002240F2021145
:10081000C2F2000003F0DAF863B2002BDCDA45F62E
:10082000E050012240F20111C2F2000003F0CEF8C4
:10083000DBE745F6E050002240F20211C2F2000070
:1008400003F0C4F870BDC04670B50500102448F22E
:10085000000615E045F6E050002240F20111C2F218
:10086000000003F0B3F845F6E050013C012240F2ED
:100870000211C2F20000E4B203F0A8F86D00A4B1C6
:1008800045F6E050002240F20211C2F2000003F0EF
:100890009DF82E42DED045F6E050012240F20111D3
:1008A000C2F2000003F092F8DDE745F6E0500022C6
:1008B00040F20211C2F2000003F088F870BDC04699
:1008C00070B5050045F6E050002240F20051C2F23A
:1008D000000003F07BF845F6E050002240F20311DF
:1008E000C2F2000003F072F82A20FFF771FF45F60C
:1008F000E050012240F20311C2F2000003F066F85A
:1009000045F6E050012240F20051C2F2000003F02F
:100910005DF845F6E050002240F20311C2F20000FB
:1009200003F054F80020FFF753FF45F6E050012292
:1009300040F20311C2F2000003F048F845F6E0501F
:10094000012240F20051C2F2000003F03FF845F6E8
:10095000E050002240F20311C2F2000003F036F82A
:100960000020FFF735FF45F6E050012240F2031169
:10097000C2F2000003F02AF845F6E050012240F2EE
:100980000051C2F2000003F021F845F6E0500022C9
:1009900040F20311C2F2000003F018F80120FFF743
:1009A00017FF45F6E050012240F20311C2F20000A9
:1009B00003F00CF845F6E050012240F20051C2F27B
:1009C000000003F003F845F6E050002240F2031166
:1009D000C2F2000002F0FAFF3F20FFF7F9FE45F6F1
:1009E000E050012240F20311C2F2000002F0EEFFDB
:1009F00045F6E050002240F20051C2F2000002F041
:100A0000E5FF45F6E050002240F20311C2F200007B
:100A100002F0DCFF2B20FFF7DBFE45F6E050012261
:100A200040F20311C2F2000002F0D0FF45F6E050A0
:100A3000012240F20051C2F2000002F0C7FF45F669
:100A4000E050002240F20311C2F2000002F0BEFFAB
:100A50000020FFF7BDFE45F6E050012240F20311F1
:100A6000C2F2000002F0B2FF45F6E050012240F26F
:100A70000051C2F2000002F0A9FF45F6E05000224A
:100A800040F20311C2F2000002F0A0FF0020FFF7C5
:100A90009FFE45F6E050012240F20311C2F2000031
:100AA00002F094FF45F6E050012240F20051C2F2FC
:100AB000000002F08BFF45F6E050002240F20311E7
:100AC000C2F2000002F082FF0020FFF781FE45F62F
:100AD000E050012240F20311C2F2000002F076FF62
:100AE00045F6E050012240F20051C2F2000002F04F
:100AF0006DFF45F6E050002240F20311C2F2000003
:100B000002F064FFEF20FFF763FE45F6E05001229C
:100B100040F20311C2F2000002F058FF45F6E05027
:100B2000002240F20051C2F2000002F04FFF45F6F1
:100B3000E050002240F20311C2F2000002F046FF32
:100B40002C20FFF745FE45F6E050012240F203114C
:100B5000C2F2000002F03AFFF02640F2401445F6DF
:100B6000E050012240F20051C2F2000002F02EFFDC
:100B700045F6E050002240F20311C2F2000002F0FC
:100B800025FF2800FFF760FE45F6E050012240F205
:100B90000311C2F20000013C02F018FF002CDED16C
:100BA000013E002ED9D170BD10B545F6E054C2F219
:100BB0000004012240F20211200002F007FF00228F
:100BC00040F20411200002F001FF40F2E83140F24F
:100BD000F41004F0F1F9012240F20411200002F0B7
:100BE000F5FE40F2E83140F2F41004F0E5F900229D
:100BF00040F20051200002F0E9FE002240F2031111
:100C0000200002F0E3FE1120FFF7E2FD012240F296
:100C10000311200002F0DAFE40F2E831782004F0FF
:100C2000CBF9002240F20051200002F0CFFE00225A
:100C300040F20311200002F0C9FE3A20FFF7C8FD80
:100C4000012240F20311200002F0C0FE012240F216
:100C50000051200002F0BAFE002240F203112000F1
:100C600002F0B4FE0520FFF7B3FD012240F20311AC
:100C7000200002F0ABFE002240F20051200002F002
:100C8000A5FE002240F20311200002F09FFEC520C5
:100C9000FFF79EFD012240F20311200002F096FEB4
:100CA000012240F20051200002F090FE002240F2AA
:100CB0000311200002F08AFE1A20FFF789FD0122AD
:100CC00040F20311200002F081FE002240F20051A8
:100CD000200002F07BFE002240F20311200002F00F
:100CE00075FE3620FFF774FD012240F2031120004B
:100CF00002F06CFE012240F20051200002F066FE7C
:100D0000002240F20311200002F060FE6020FFF795
:100D10005FFD012240F20311200002F057FE002285
:100D200040F20051200002F051FE002240F2031177
:100D3000200002F04BFEB220FFF74AFD012240F2F4
:100D40000311200002F042FE012240F20051200077
:100D500002F03CFE002240F20311200002F036FEB9
:100D60000520FFF735FD012240F20311200002F0BB
:100D70002DFE012240F20051200002F027FE002249
:100D800040F20311200002F021FE0520FFF720FDB4
:100D9000012240F20311200002F018FE012240F26D
:100DA0000051200002F012FE002240F20311200048
:100DB00002F00CFE0020FFF70BFD012240F20311B0
:100DC000200002F003FE012240F20051200002F058
:100DD000FDFD002240F20311200002F0F7FD332058
:100DE000FFF7F6FC012240F20311200002F0EEFDB5
:100DF000012240F20051200002F0E8FD002240F202
:100E00000311200002F0E2FD3320FFF7E1FC012294
:100E100040F20311200002F0D9FD002240F20051FF
:100E2000200002F0D3FD002240F20311200002F066
:100E3000CDFDB720FFF7CCFC012240F203112000CA
:100E400002F0C4FD012240F20051200002F0BEFD7C
:100E5000002240F20311200002F0B8FD0520FFF748
:100E6000B7FC012240F20311200002F0AFFD002286
:100E700040F20051200002F0A9FD002240F20311CF
:100E8000200002F0A3FDBB20FFF7A2FC012240F2EC
:100E90000311200002F09AFD012240F200512000CF
:100EA00002F094FD002240F20311200002F08EFDBA
:100EB0003F20FFF78DFC012240F20311200002F0D9
:100EC00085FD002240F20051200002F07FFD00224B
:100ED00040F20311200002F079FDC020FFF778FCFA
:100EE000012240F20311200002F070FD012240F2C5
:100EF0000051200002F06AFD002240F203112000A0
:100F000002F064FD2C20FFF763FC012240F2031184
:100F1000200002F05BFD002240F20051200002F0B0
:100F200055FD002240F20311200002F04FFDC220C7
:100F3000FFF74EFC012240F20311200002F046FDB3
:100F4000012240F20051200002F040FD002240F258
:100F50000311200002F03AFD0120FFF739FC0122C5
:100F600040F20311200002F031FD002240F2005156
:100F7000200002F02BFD002240F20311200002F0BD
:100F800025FDC320FFF724FC012240F203112000BD
:100F900002F01CFD012240F20051200002F016FD7B
:100FA000002240F20311200002F010FD0F20FFF795
:100FB0000FFC012240F20311200002F007FD002285
:100FC00040F20051200002F001FD002240F2031126
:100FD000200002F0FBFCC420FFF7FAFB012240F2E4
:100FE0000311200002F0F2FC012240F20051200027
:100FF00002F0ECFC002240F20311200002F0E6FCBB
:101000002020FFF7E5FB012240F20311200002F04F
:10101000DDFC002240F20051200002F0D7FC00224B
:1010200040F20311200002F0D1FCC620FFF7D0FBF4
:10103000012240F20311200002F0C8FC012240F21C
:101040000051200002F0C2FC002240F203112000F7
:1010500002F0BCFC0120FFF7BBFB012240F20311B0
:10106000200002F0B3FC002240F20051200002F008
:10107000ADFC002240F20311200002F0A7FCD020BA
:10108000FFF7A6FB012240F20311200002F09EFCB4
:10109000012240F20051200002F098FC002240F2B0
:1010A0000311200002F092FCA420FFF791FB012223
:1010B00040F20311200002F089FC012240F20051AD
:1010C000200002F083FC002240F20311200002F015
:1010D0007DFCA120FFF77CFB012240F203112000E0
:1010E00002F074FC002240F20051200002F06EFC7D
:1010F000002240F20311200002F068FCE820FFF714
:1011000067FB012240F20311200002F05FFC012284
:1011100040F20051200002F059FC002240F203117D
:10112000200002F053FC0320FFF752FB012240F2A3
:101130000311200002F04AFC002240F2005120007E
:1011400002F044FC002240F20311200002F03EFCB9
:10115000E920FFF73DFB012240F20311200002F0DD
:1011600035FC012240F20051200002F02FFC002249
:1011700040F20311200002F029FC0920FFF728FBB0
:10118000012240F20311200002F020FC012240F273
:101190000051200002F01AFC002240F2031120004E
:1011A00002F014FC0920FFF713FB012240F20311A7
:1011B000200002F00BFC012240F20051200002F05E
:1011C00005FC002240F20311200002F0FFFB082082
:1011D000FFF7FEFA012240F20311200002F0F6FBB5
:1011E000002240F20051200002F0F0FB002240F209
:1011F0000311200002F0EAFBE020FFF7E9FA0122E8
:1012000040F20311200002F0E1FB012240F2005104
:10121000200002F0DBFB002240F20311200002F06C
:10122000D5FBD020FFF7D4FA012240F203112000B1
:1012300002F0CCFB012240F20051200002F0C6FB7C
:10124000002240F20311200002F0C0FB0520FFF74E
:10125000BFFA012240F20311200002F0B7FB012285
:1012600040F20051200002F0B1FB002240F20311D5
:10127000200002F0ABFB0920FFF7AAFA012240F29E
:101280000311200002F0A2FB012240F200512000D5
:1012900002F09CFB002240F20311200002F096FBBA
:1012A0000920FFF795FA012240F20311200002F015
:1012B0008DFB012240F20051200002F087FB00224A
:1012C00040F20311200002F081FB0820FFF780FAB2
:1012D000012240F20311200002F078FB012240F2CB
:1012E0000051200002F072FB002240F203112000A6
:1012F00002F06CFB1420FFF76BFA012240F203119D
:10130000200002F063FB012240F20051200002F0B5
:101310005DFB002240F20311200002F057FB282061
:10132000FFF756FA012240F20311200002F04EFBB3
:10133000012240F20051200002F048FB002240F25E
:101340000311200002F042FB3320FFF741FA012293
:1013500040F20311200002F039FB012240F200515B
:10136000200002F033FB002240F20311200002F0C3
:101370002DFB3F20FFF72CFA012240F20311200041
:1013800002F024FB012240F20051200002F01EFB7B
:10139000002240F20311200002F018FB0720FFF7A3
:1013A00017FA012240F20311200002F00FFB012284
:1013B00040F20051200002F009FB002240F203112C
:1013C000200002F003FB1320FFF702FA012240F293
:1013D0000311200002F0FAFA012240F2005120002D
:1013E00002F0F4FA002240F20311200002F0EEFABB
:1013F0001420FFF7EDF9012240F20311200002F062
:10140000E5FA012240F20051200002F0DFFA00224A
:1014100040F20311200002F0D9FA2820FFF7D8F992
:10142000012240F20311200002F0D0FA012240F222
:101430000051200002F0CAFA002240F203112000FD
:1014400002F0C4FA3020FFF7C3F9012240F2031181
:10145000200002F0BBFA002240F20051200002F00E
:10146000B5FA002240F20311200002F0AFFAE120A9
:10147000FFF7AEF9012240F20311200002F0A6FAB4
:10148000012240F20051200002F0A0FA002240F2B6
:101490000311200002F09AFAD020FFF799F90122F7
:1014A00040F20311200002F091FA012240F20051B3
:1014B000200002F08BFA002240F20311200002F01B
:1014C00085FA0520FFF784F9012240F2031120007C
:1014D00002F07CFA012240F20051200002F076FA7C
:1014E000002240F20311200002F070FA0920FFF7F9
:1014F0006FF9012240F20311200002F067FA012285
:1015000040F20051200002F061FA002240F2031183
:10151000200002F05BFA0920FFF75AF9012240F29D
:101520000311200002F052FA012240F20051200083
:1015300002F04CFA002240F20311200002F046FAB9
:101540000820FFF745F9012240F20311200002F0C4
:101550003DFA012240F20051200002F037FA002249
:1015600040F20311200002F031FA0320FFF730F9B6
:10157000012240F20311200002F028FA012240F279
:101580000051200002F022FA002240F20311200054
:1015900002F01CFA2420FFF71BF9012240F203118C
:1015A000200002F013FA012240F20051200002F064
:1015B0000DFA002240F20311200002F007FA322057
:1015C000FFF706F9012240F20311200002F0FEF9B4
:1015D000012240F20051200002F0F8F9002240F20E
:1015E0000311200002F0F2F93220FFF7F1F8012296
:1015F00040F20311200002F0E9F9012240F200510B
:10160000200002F0E3F9002240F20311200002F072
:10161000DDF93B20FFF7DCF8012240F20311200046
:1016200002F0D4F9012240F20051200002F0CEF97C
:10163000002240F20311200002F0C8F91420FFF745
:10164000C7F8012240F20311200002F0BFF9012285
:1016500040F20051200002F0B9F9002240F20311DB
:10166000200002F0B3F91320FFF7B2F8012240F294
:101670000311200002F0AAF9012240F200512000DB
:1016800002F0A4F9002240F20311200002F09EF9BA
:101690002820FFF79DF8012240F20311200002F0FC
:1016A00095F9012240F20051200002F08FF900224A
:1016B00040F20311200002F089F92F20FFF788F88B
:1016C000012240F20311200002F080F9002240F2D2
:1016D0000051200002F07AF9002240F203112000AC
:1016E00002F074F92020FFF773F8012240F2031191
:1016F000200002F06BF9002240F20051200002F0BD
:1017000065F9002240F20311200002F05FF9292060
:10171000FFF75EF8012240F20311200002F056F9B3
:1017200010BDC046F0B5DE46454657464E46E0B5CC
:1017300085B0029045F6E0501D0003930EAB019278
:101740001A880C00904640F200510022C2F20000BC
:1017500002F03CF945F6E050002240F20311C2F2DB
:10176000000002F033F92B20FFF732F845F6E05085
:10177000012240F20311C2F2000002F027F945F6FF
:10178000E050012240F20051C2F2000002F01EF9C6
:1017900045F6E050002240F20311C2F2000002F0D0
:1017A00015F92000FFF750F845F6E050012240F20D
:1017B0000311C2F2000002F009F92B0045F6E050D7
:1017C000013B012240F20051C2F200001C1902F05C
:1017D000FDF845F6E050002240F20311C2F200008D
:1017E00002F0F4F82000FFF72FF845F6E050012250
:1017F00040F20311C2F2000002F0E8F845F6E050B2
:10180000002240F20051C2F2000002F0DFF845F67B
:10181000E050002240F20311C2F2000002F0D6F8BC
:101820002C20FEF7D5FF45F6E050012240F20311CF
:10183000C2F2000002F0CAF80F9B1B785BB21F2BAC
:1018400000DC03E17F2B00D113E145F6E0500022DC
:1018500040F20051C2F2000002F0B8F845F6E05044
:10186000002240F20311C2F2000002F0AFF82A2079
:10187000FEF7AEFF45F6E050012240F20311C2F23E
:10188000000002F0A3F845F6E050012240F20051BA
:10189000C2F2000002F09AF845F6E050002240F251
:1018A0000311C2F2000002F091F8029C2000FEF742
:1018B000CBFF45F6E050012240F20311C2F20000D6
:1018C00002F084F8019A230094466344013B45F6F4
:1018D000E050012240F20051C2F200001C000293CD
:1018E00002F074F845F6E050002240F20311C2F213
:1018F000000002F06BF82000FEF7A6FF45F6E0506E
:10190000012240F20311C2F2000002F05FF845F636
:10191000E050002240F20051C2F2000002F056F8FE
:1019200045F6E050002240F20311C2F2000002F03E
:101930004DF82C20FEF74CFF45F6E050012240F216
:101940000311C2F2000002F041F80F9B019A1B78CC
:101950000027203BDBB29946039B5343DB089B46A1
:10196000002B6BD04A464623534344F20002C2F296
:101970000002924601269A445346DD5D4B465F2B9A
:101980006BD043460824B8461F001AE002F01EF848
:1019900045F6E050002240F20311C2F2000002F0CE
:1019A00015F83800FEF750FF45F6E050013C0122E3
:1019B00040F20311C2F20000E4B202F007F86D0831
:1019C000ACB345F6E050012240F20051C2F20000F3
:1019D0002E42DBD101F0FAFF45F6E050002240F242
:1019E0000311C2F2000001F0F1FF0020FEF7F0FE4B
:1019F00045F6E050012240F20311C2F2000001F06E
:101A0000E5FF45F6E050012240F20051C2F200002D
:101A100001F0DCFF45F6E050002240F20311C2F273
:101A2000000001F0D3FF0020FEF7D2FEBCE73B0030
:101A300047460137BFB298465F459DD30F9B0133A0
:101A40000F931B785BB21F2B00DDFBE605B0F0BCEB
:101A5000BB46B246A946A046F0BD3B2F91D944F201
:101A6000000341F6042CC2F20003FB1863441D7806
:101A700087E745F6E050019B00225C0040F20051F0
:101A8000C2F20000019401F0A1FF45F6E0500022EF
:101A900040F20311C2F2000001F098FF2A20FEF785
:101AA00097FE45F6E050012240F20311C2F2000019
:101AB00001F08CFF45F6E050012240F20051C2F2E5
:101AC000000001F083FF45F6E050002240F20311D0
:101AD000C2F2000001F07AFF029D2800FEF7B4FE7A
:101AE00045F6E050012240F20311C2F2000001F07D
:101AF0006DFF2B00A446013B6344E8E610B50020CF
:101B0000FEF7DEFE10BDC046F0B5D6464F4646464F
:101B10000C009246C0B586B00A2205A98146200075
:101B200098460E9E0F9F109DFEF706FE0A22504615
:101B300003A9FEF701FE092C47D94B464FF6FF7962
:101B40006B4318009A4605AB01934B462A0000935D
:101B500031003B004044092C33DC093431D2FFF71B
:101B6000E1FD6C00641954444346E0184AF25433D2
:101B7000C0F2000301934B462A00310000933B0062
:101B8000FFF7D0FD43466419E01803AB01934B46C1
:101B90002A00009331003B00FFF7C4FD43467F223B
:101BA000981E04AB64191A70723A20185A70142ED9
:101BB0001CD0382E23D006B0E0BCBA46B146A846A9
:101BC000F0BDFFF7AFFD6C00CDE74C4643464FF646
:101BD000FF796C43E01805AB01934B462A00009354
:101BE00031003B00FFF79EFD6419BDE701934B46B2
:101BF0002A00009314213B00FFF794FDDBE74AF233
:101C00005833C0F2000301934B462A000093382159
:101C10003B00FFF787FDCEE74AF25C334AF2004211
:101C20004AF270301F2110B5C0F20003C0F200026A
:101C3000C0F2000003F0BAF94AF25C334AF2F03223
:101C40004AF27030252110B5C0F20003C0F2000244
:101C5000C0F2000003F0AAF94AF25C334AF2E03223
:101C60004AF270302B2110B5C0F20003C0F200021E
:101C7000C0F2000003F09AF945F62153002245F620
:101C8000BC4145F65C6070B5C2F200031A7082B0C8
:101C90003232C2F20001C2F2000000F055FE45F6F9
:101CA0002552C2F200021378002BFCD045F6BC4549
:101CB0000023C2F2000513702B79742B24D045F653
:101CC000BC444FF6FF76C2F200043C3502E001341A
:101CD000AC4211D02378772BF9D123793D2BF6D163
:101CE000631D01931022202380218420009601345B
:101CF000FFF718FDAC42EDD145F627530122C2F2A1
:101D000000031A7002B070BDEB7B3D2BD7D12E00C3
:101D100000240F360BE04AF298302300AB21C0F2CA
:101D20000000013405F05EFD0136062C0DD032783E
:101D30000D2AF0D17F234AF298303370AB212A7EEE
:101D4000763BC0F2000005F04DFD2B0010330193EF
:101D50004FF6FF73102200935C2120238420FFF7AD
:101D6000E1FCACE745F621530021C2F200031970F3
:101D700045F6BC43C2F200031A7A662A05D0742ADB
:101D800002D15A7A722A0FD070475A7A612AFBD14F
:101D90009A7A692AF8D1DB7A6C2BF5D145F6225371
:101DA000C2F200031970EFE79A7A752AECD1DB7A58
:101DB000652BE9D145F62253743AC2F200031A703A
:101DC000E2E7C0464AF2AC6145F62C6010B5C0F2BD
:101DD0000001C2F2000000F043FEB0B94AF2E06137
:101DE00045F65C60C0F20001C2F2000000F038FE6F
:101DF00078B94AF2147145F68C60C0F20001C2F263
:101E0000000000F02DFE10B910BDFFF705FFFFF731
:101E100023FFFFF711FFC04610B50379022B0BD04B
:101E2000042B08D1010045F65C6001220831C2F2A2
:101E3000000000F089FD10BD45F625530122C2F2D5
:101E400000031A70F7E7C0460379022B05D145F667
:101E500026530122C2F200031A70704710B50379AD
:101E6000022B04D0042B0FD0012B07D010BD45F658
:101E700024530122C2F200031A70F7E745F62352F9
:101E8000C2F200021370F1E745F62053C2F20003DC
:101E90001A78632A08D88168501C187045F6BC432C
:101EA000C2F200039954E1E7002245F6BC401A70E3
:101EB00000216432C2F2000004F05FFFD6E7C046A2
:101EC00045F65C6010B5C2F20000140000F03CFD65
:101ED00045F62551C2F200010B78002BFCD00023FF
:101EE00020000B7010BDC04600B583B05A226B466F
:101EF00069461A70A52368464B700121C270817033
:101F0000037145F62C6005226946C2F2000000F01C
:101F10001BFD45F62452C2F200021378002BFCD0C0
:101F20000023137045F621530222C2F200031A70F7
:101F300003B000BD45F62753C2F20003187870477E
:101F400000B583B05A226B4669461A70A5236846CD
:101F50004B700221C2708170037145F62C6005221E
:101F60006946C2F2000000F0EFFC45F62452C2F2CE
:101F700000021378002BFCD0002145F6215311708C
:101F80000122C2F200031A7045F62253C2F2000386
:101F9000197003B000BDC04645F6215310B5C2F21A
:101FA00000031B78012B17D0022B06D145F6BC434A
:101FB000C2F200031A78352A1BD045F620530022BE
:101FC00045F6BC40C2F200031A7000216432C2F22E
:101FD000000004F0D2FE10BD45F6BC43C2F200037F
:101FE0001A78432AE9D15B786F2BE6D1FFF7BAFE66
:101FF000E3E75B78412BE0D1FFF73EFEDDE7C0462B
:10200000F8B545F6BC4545F6225645F6215740F24F
:10201000E834C2F20005C2F20006C2F2000740F244
:10202000E831012002F0C8FF2B78432B0BD0013C94
:10203000A4B28CB13378002BF1D03B78002BEED1D9
:1020400001203370F8BD6B786F2BF0D1013CA4B246
:10205000FFF788FE002CEDD10020F3E710B58AB021
:102060002422002101A804F088FE032304930433F2
:10207000059374330693773B07934AF24873C0F293
:1020800000031C685968200001F092FB01A92000A0
:1020900001F0B4F90E21200001F034FA0AB010BDAD
:1020A00000B5037883B0012B01D003B000BD4AF224
:1020B000487345F62851C0F200031B68C2F20001C4
:1020C0001800019301F05EF845F64C52C2F200028E
:1020D00013780133DBB23B2B09D90023137045F68B
:1020E0004D53C2F200031A7801321A70DDE7137003
:1020F000DBE7C04610B5FFF71DFF38B145F64D547C
:10210000C2F2000423781E2B09D810BD45F64D54A9
:10211000C2F20004FEF71CFA23781E2BF5D9FEF755
:1021200017FA00232370F0E770B545F60C644AF205
:102130005C6145F65C55C2F20004C2F20005200065
:10214000C0F2000102F030FA2900200002F092F9FA
:1021500045F6D453AA68C2F2000320001A6002F0C8
:10216000F1F8200002F0E8F870BDC04670B50379C0
:10217000012B03D0022B21D0C3B170BD45F6CE5345
:10218000C2F200031A78012A7ED0032AF5D145F65F
:1021900054528168C2F20002116045F6D05200210B
:1021A000C2F20002116004221A70E6E745F6D0532D
:1021B000C2F200031A6801321A60DEE745F6CE5318
:1021C000C2F200031A78002A50D0022A00D190E00F
:1021D000042AD2D145F6D05245F6D451C2F20002BB
:1021E000C2F2000114680A6881686243521845F619
:1021F0005051C2F200010A6045F65451C2F200018A
:102200000968521A3021B2FBF1F245F6585110001C
:10221000C2F200010A6040F2F2112E38FF38884203
:1022200000D9BDE045F6D85145F6DA500322C2F296
:102230000001C2F200001A700A78037852000133DC
:10224000D2B2DBB20A700370072B96D945F6CC5395
:10225000C2F200031C78651C1D7045F66853C2F27B
:1022600000031A55002303700B7086E745F65051A2
:102270008068C2F20001086045F6D051C2F2000148
:102280000A6001321A7078E745F6D05445F6D45208
:10229000C2F20004C2F2000281681268206845F6AA
:1022A0005455424345F65850C2F20000521801609E
:1022B00045F65051C2F200010E68C2F20005921BB1
:1022C0004DF68076CFF6FA76B4464AF6FF2662449B
:1022D000C2F25026B24206D802221A7000232B60A6
:1022E0000B60236049E700221A702A600A600260CE
:1022F00043E745F6D05145F6D452C2F20001C2F28E
:1023000000020C68126880686243121845F6585043
:10231000C2F20000056845F65054521B4EF6504577
:10232000CFF6FC75561945F6BF55C2F20004AE4211
:1023300022D946F25035CFF6FE75AC4644F6FF255D
:102340006244AA4212D845F6D952C2F20002157868
:102350000135157000221A7045F6CD5302602260D7
:102360000A60C2F2000301321A7006E700222260FE
:1023700002600A601A7000E703221A70002345F613
:10238000CC52036045F66850C2F200020B60137035
:1023900000216422C2F20000236004F0EEFCECE6AF
:1023A00018498C4640F28E1162448A4226D8032294
:1023B00045F6D85145F6DA501A700122C2F20001F2
:1023C0000B78C2F200005B0013430278DBB20132EB
:1023D000D2B20B700270072A00D8CEE645F6CC5276
:1023E000C2F200021478651C157045F66852C2F2FC
:1023F00000021355002303700B70BEE600221A7012
:10240000BBE6C04687FAFFFF4AF2186345F6E05084
:1024100010B5C0F200035968C2F2000001F0D0FB11
:1024200010BDC0464AF2246145F6E85010B5C0F22E
:102430000001C2F2000002F01BFB4AF2486145F6BF
:10244000E850C0F20001C2F2000002F0C9FB00B97E
:1024500010BD4AF214434AF24C424AF2284012217B
:10246000C0F20003C0F20002C0F2000002F09EFDC4
:1024700045F6DB530122C2F200031A707047C046D2
:1024800045F6E85010B5C2F2000082B002F04EFAF4
:1024900045F6DB52C2F200021378002BFCD0002379
:1024A00013706B4645F6E8509C1D22000821C2F2CD
:1024B000000002F041FA208804F00CFC46F266624B
:1024C00046F26663C6F26662C4F20A0303F0B8FD20
:1024D0004FF600630022C4F2AF0303F095FA02B096
:1024E00010BDC04645F6A473C2F200031B6810B5C8
:1024F000B3FBF0F045F6DC53C2F200031860802312
:1025000001385B04984214D24EF210024EF600518C
:10251000CEF200025060C020CEF200010B6A00062D
:102520001B021B0A03430B620023936007331360F3
:1025300010BD4AF258434AF28C424AF260403621BA
:10254000C0F20003C0F20002C0F2000002F02EFD53
:1025500045F68823C2F200031900012020315A7881
:1025600032B1013AD2B25A7012B99A7818705A70D0
:1025700008338B42F3D1704710B5FFF7E9FF10BD68
:1025800070B545F68824C2F20004250000262035E7
:10259000237813B16368984726700834AC42F7D1AA
:1025A00070BDC04610B545F6E054C2F200040522E5
:1025B0000221200001F016FB01220221200001F07F
:1025C00005FA40F2E83140F2E83002F0F5FC002272
:1025D0000221200001F0FAF940F2E831122002F065
:1025E000EBFC01220221200001F0F0F9002202217F
:1025F000200001F0F7FA002240F20721200001F04C
:10260000E5F910BDF0B5C64600B582B06B46DD1DDC
:10261000012308270026984676006324F6B203E0DB
:10262000013CE4B2002C42D00121012002F0C4FCA4
:1026300045F6E0502A000221C2F2000001F098F9AC
:102640002B78002BECD001211C2002F0B5FC45F6C4
:10265000E0502A000221C2F2000001F089F92B7833
:10266000012B02D143461E43F6B245F6E05001224B
:1026700040F20721C2F2000001F0A8F945F6E0504F
:10268000002240F20721C2F2000001F09FF945F656
:10269000E0502A000221C2F2000001F069F92B7813
:1026A000012BF4D0013FFFB2002FB5D13400200040
:1026B00002B080BCB846F0BD70B5052082B004F011
:1026C0003FFB0600FFF76EFF6B466325DC1D03E052
:1026D000013DEDB2002D59D00121012002F06CFC2A
:1026E00045F6E05022000221C2F2000001F040F95C
:1026F0002378012BECD0C72503E0013DEDB2002D7E
:102700004DD00121012002F057FC45F6E050220097
:102710000221C2F2000001F02BF92378002BECD04B
:10272000C72503E0013DEDB2002D41D0012101207C
:1027300002F042FC45F6E05022000221C2F2000005
:1027400001F016F92378012BECD0FFF75BFF307016
:10275000FFF758FF7070FFF755FFB070FFF752FF9B
:10276000F070FFF74FFF727833789B18B2789B18A0
:10277000F2789B18FF221340834204D00023337168
:10278000300002B070BD01233371F9E74AF29C407A
:102790002021C0F2000005F025F83571F0E74AF27B
:1027A000F0402C21C0F2000005F01CF83571E7E77D
:1027B0004AF244503821C0F2000005F013F8357198
:1027C000DEE7C04610B584B0FFF776FF037904005A
:1027D000012B04D0200004F0BDFA04B010BD0F336B
:1027E0004278017802931033019318330093072045
:1027F000243BFFF789F9EDE710B582B0FFF704FE3F
:1028000045F6E050012240F20C11C2F2000001F046
:10281000DDF8FFF7D7FAFFF721FCFFF703FEFEF71D
:10282000C3F9FFF76BF9FFF77FFC4AF2A4534FF6A9
:10283000FF74C0F2000301931022202314211420FE
:102840000094FEF76FFF4AF2AC53C0F2000301930D
:1028500010222023382114200094FEF763FF4AF24F
:10286000B453C0F200030193102220235C211420F2
:102870000094FEF757FF4AF2BC53C0F200030193E5
:1028800010222023802114200094FEF74BFF4AF2EF
:10289000C453C0F200031022A42114200193009419
:1028A0002023FEF73FFFFFF78DFFFFF78BFFEFF3CE
:1028B0001081012383F3108845F61473C2F20003DC
:1028C0001A6832B940F60050C4F20400C2704032B7
:1028D000C2701A6801321A6081F310880A20FFF76B
:1028E00001FE02B010BDC04610B5FFF785FF4AF2E9
:1028F000D8501A21C0F2000004F074FFFFF740FE28
:10290000FCE7C04600B583B040B94CF2000390220A
:102910000121C4F27E03995403B000BD0228FBD10B
:102920004AF2186345F6E050C0F200035B68C2F259
:1029300000001900019301F043F9EDE710B5FFF72E
:10294000D3FF002010BDC0467B2330B5046AA578B4
:102950002B40A37083789B079B0FD21A02618022C1
:10296000CB18C360A3781343A3700323827813406A
:10297000022B03D00B78E370002030BD4FF60062CD
:102980000B881343E381F7E7F0B51F2501241540B9
:10299000AC404EF20015C64653092033CEF2000576
:1029A0009B0000B588465C51BFF34F8FBFF36F8F1C
:1029B000130046F20004C033C4F200049B001D590A
:1029C000124E35401D511B594EF20011FF240325B4
:1029D000CEF200018C46210040F200371540ED0098
:1029E000A94093089B006344DE5992008E43414600
:1029F00089010C40AC403443DC5145F61873C2F2F7
:102A00000003D05080BCB846F0BDC046FFFFFEFFBB
:102A1000F0B5C64600B50500806A84B08C46904685
:102A20006C46D8B12300060086CE86C336681E6089
:102A3000EB691B7803606346836043460371EB6A6E
:102A4000C3606B6A9847AB6A23B107CC07C31A000F
:102A50002368136004B080BCB846F0BD2000E7E7EF
:102A600043F60002C0F200229446F8B54546DE4621
:102A700057464E460B78E0B563445B010362002382
:102A800003704A690D0042628A69C161C262032211
:102A9000012183628378040093430B4383706B7836
:102AA00023B9837893430222134383700B222000BF
:102AB000AA56A97AFFF768FF05222000AA562979AD
:102AC000FFF762FF07222000AA56A979FFF75CFFF3
:102AD00009222000AA56297AFFF756FFEFF3108645
:102AE000012080F31088802146F6FC732F780906B8
:102AF000F940C4F204035A688A435A605B6886F35B
:102B000010880022236A29789A701A715A729A7270
:102B1000DA725A8340F20722CA40104201D04022A2
:102B2000DA7406221A776878AA78EE78E9692D783F
:102B30000DB9734D9D821201F6003243032800D176
:102B4000D9E0451EA8410001E230D2B21A7002223B
:102B50009871087BFF264000024020205A734A7873
:102B60008D78D2016D012840324002430020187256
:102B70000878851E8346012D00D8B4E003274D68F0
:102B8000D2B2DA71AA786E785A701A783E40BA4397
:102B900032431A70EA7859379A74DE792A78BE433C
:102BA0003A403243DA71002305222361A361E360D6
:102BB0006361E369534F9A5646F200031500C0352E
:102BC000C4F20003AD00EE58BC463E40EE50ED5856
:102BD000BFF35F8F40F21F0A0126554637001540AC
:102BE000AF404EF20015CEF20005A94640F2801526
:102BF000520992004A445751176040F2C008E269F6
:102C00006046D27A52B290444746BF00B846FF5859
:102C100007404046C750C058BFF35F8F5746174024
:102C2000B8463700404687404EF20010CEF2000012
:102C30008146520992004A445751176040F2C00839
:102C4000E269D27952B29044404680008046C05832
:102C50000700604607404046C750C058BFF35F8F2B
:102C600057461740B8463700404687404EF200109E
:102C7000CEF200008146520992004A445751176033
:102C800040F2C008E2696746527A52B29044404628
:102C900080008046C05807404046C750C358BFF325
:102CA0005F8F4EF200135746CEF2000317409C464A
:102CB000BE405209920062445651166003235846A2
:102CC00018406D331843236A98704B890020238184
:102CD00044F65513C5F243336360F0BCBB46B246BD
:102CE000A946A046F8BD5E70022801D110252A43EE
:102CF000D2B2DA7157E73D300243B23025E7C04621
:102D000000F8FFFFFFFFFEFF70B5EFF30383103BFA
:102D10005BB21A0046F20001C032C4F20001920018
:102D200050581D4C20405050525845F618729B0088
:102D3000C2F200029858C3691B6913B1036913B149
:102D400070BD036983B97F23026A91780B40042127
:102D50000B4393700023C360436A002BF0D08022A2
:102D60000021FFF755FEEBE703218278114002298D
:102D70000AD0C168056A0C78EC709207920F9B1A12
:102D80008A180361C260DAE74FF60065C1680C88F3
:102D90002C43056AEC81F0E7FFFFFEFF10B582B01F
:102DA000EFF30383103B5BB21A0046F20001C0321E
:102DB000C4F20001920050581F4C2040505052580D
:102DC00045F618729B00C2F200029C580323A278B9
:102DD0001340022B0DD0236A5979A369C9B201911E
:102DE00083B9636A1BB104222000FFF711FE02B011
:102DF00010BD40F2FF11236A1B8A1940A36901919B
:102E0000002BEED09207920F606901A903F0ACFF8E
:102E1000A37862699B079B0FD2186261A269D31ADB
:102E2000A361002BE3D1636A002BE0D001220021D3
:102E30002000FFF7EDFDDAE7FFFFFEFF10B5EFF32F
:102E4000038445F61873103C64B2C2F20003A2007A
:102E5000D0587B23026A91780B409370436A1BB170
:102E600002220021FFF7D4FD230046F20002C03306
:102E7000C4F200029B0099580248014099509B58A7
:102E800010BDC046FFFFFEFF70B5EFF3038445F6AB
:102E90001873103C64B2C2F20003A200D05803239E
:102EA00082781340022B22D0036A5979C9B23822A2
:102EB0001D792A40ED0602D51D7FED0714D5382671
:102EC0001D79B5431D71436A0BB1FFF7A1FD2300C6
:102ED00046F20002C033C4F200029B009958074832
:102EE000014099509B5870BD40252A43E7E740F2C6
:102EF000FF11036A1A8A1140D9E7C046FFFFFEFF9F
:102F000044F200022223002110B50124C4F204027D
:102F1000D1542431535CA3435354535CDB07DC0F7F
:102F2000002BFAD10F2243689A56002A18DB1F2182
:102F30005309114001228A404EF200112033CEF293
:102F400000019B005A50BFF34F8FBFF36F8F0F21CB
:102F500045F618724368C2F20002595689008C5037
:102F60000D229A56002A19DB1F2153091140012214
:102F70008A404EF200112033CEF200019B005A50DD
:102F8000BFF34F8FBFF36F8F0D2145F618720024EA
:102F90004368C2F20002595689008C5011229A5699
:102FA000002A19DB1F215309114001228A404EF2E9
:102FB00000112033CEF200019B005A50BFF34F8F17
:102FC000BFF36F8F45F6187300214268C2F2000309
:102FD000527C52B29200D15000230360002010BDF9
:102FE00044F20002072370B5C4F20402157C2809DC
:102FF0001840840004190F20640005406419E4B2ED
:103000000C60957C2C091C40A600A41905406400A6
:103010006419E4B24C60157D2C091C40A600A4196B
:10302000054064006419E4B28C60957D2C091C4055
:10303000A600A419054064006419E4B28C61157EF1
:103040002C091C40A600A419054064006419E4B2D0
:10305000CC60947E25092B409D005B1904405B00E9
:103060001B19DBB2013B0B61948BE4B223099D0079
:103070005B1920405B001B182420DBB264334B61DA
:10308000137CDB090B54937C0130DB090B54137D5B
:103090000130DB090B54937D0430DB090B54137EA4
:1030A0000338DB090B54937E0130DB090B54937F0B
:1030B0002922DB0900208B5470BDC04643682422BE
:1030C0001B7800200B7044F20003C4F204039B5CE5
:1030D000DB07DB0F4B707047C1604261036100206A
:1030E0007047C046F8B5436844F200041A782823B4
:1030F000C4F20404E25406000F00C820012101F0CC
:103100005BFF24220121A35C8B43A354A35CDB0758
:10311000DD0F002BFAD173681B78012B02D1BB881D
:103120006585A38544F2000200212423C4F2040231
:10313000D1542431535CDB09002BFBD10220535CBA
:103140000343535444F200022421C4F20402535CAA
:103150009B07D80F002BFADB2223D0544020535C6E
:103160000343535444F200022421C4F20402535C8A
:103170005B06FCD5F8BDC04610B54168FFF7B2FF4D
:10318000002010BDF0B54546DE4657464E46E0B538
:103190001125436884465D57884683B06C09002D2D
:1031A00000DAACE04EF200131F22CEF20003A400BE
:1031B0001B592A40D34001221100194089461A4266
:1031C0002BD144F2000222210220C4F20402535CFB
:1031D0000343535420302039135C1942FCD02B0098
:1031E00046F20002C033C4F200029B0099585648D0
:1031F000014099509B58BFF35F8F4EF200121F237E
:10320000CEF2000291461D401E3BAB4040F28012C0
:103210004C44A350236040F2000944F2000340F202
:10322000000AC4F204036246514611729878197973
:10323000C0B2CAB2614601929F791E7A9D7A1C7B08
:10324000DA89097AFFB2F6B2EDB2E4B292B200299D
:10325000E9D1D2B292460209934692005A445200F2
:1032600093460F22414610405844C0B2086001996D
:10327000080981008B4601995844400011404118CB
:103280004046C9B24160B906890F88000918490053
:103290001740CF194146FFB28F60310988000918E5
:1032A000490016408E194146F6B28E612909880000
:1032B0000918490015404D194146EDB2CD6021096C
:1032C00088000918490014400C194146E4B2013C39
:1032D0000C6151460909880009185046490002400E
:1032E0008A184146D2B264324A614A464AB1002045
:1032F00003B0F0BCBB46B246A946A046F0BDA40050
:103300005FE7222102205A5C82435A5444F20002B1
:103310002030C4F204022039135C1942FCD1634608
:1033200011221F215B689A561140530901228A40DD
:103330004EF200112033CEF200019B005A50BFF331
:103340004F8FBFF36F8FD2E7FFFFFEFFF0B5C6468A
:1033500044F20005242400B5C4F204052C5DE40603
:10336000E40F84421DD000262E242E552E36AC5D4F
:10337000002CFCD1012640F2100C24270640360117
:10338000B0466646EC5DB44346463443EC5544F2E1
:1033900000052426C4F20405AC5DE406E40F844273
:1033A000FAD1012811D03F2192010B4044F20001D3
:1033B0001A432E232E20D2B2C4F20401CA540B5C4D
:1033C0009A42FCD180BCB846F0BD44F200042426E9
:1033D000C4F20404A55DAD06ED0F8D42E3D02027B5
:1033E000A55D0840BD43400128432425A055605DEC
:1033F0008006C00F8142FAD1D5E7C046F8B544F245
:10340000000324240125C4F204031A5DAA431A55BB
:103410001A5DD207FCD40A220E78B6FBF2F7BD0083
:10342000ED196D00751B0E793C01B6FBF2F72C43CC
:10343000BD00ED19E4B26D009C70751B3C012C437E
:103440000D7AE4B2B5FBF2F71C71BC00E41964001C
:103450002D1B3E012E433F2535400E7E9D71B6FB50
:10346000F2F7BD00ED196D00751B0E7B3C01B6FB3C
:10347000F2F72C43BD00ED19E4B26D001C72751B10
:103480003C012C43E4B29C720C6949690134E4B2FA
:10349000B4FBF2F76439C9B2B1FBF2F2BE00F6191F
:1034A00076003D01A41B2C43E4B295001C7314016B
:1034B000AA185200891A2143C9B2D98143681A78DF
:1034C0006AB144F2000224210120C4F20402535CD8
:1034D00003435354535CDB07FCD50020F8BD9868C8
:1034E0004368827841780078FFF730FFE9E7C0460B
:1034F000080010B54B688A7800784978FFF726FFF6
:10350000002010BD44F2000270B522250F24C4F241
:103510000402565D0B01344023432224DBB2535591
:10352000135D1B098B42FBD10421135D0B43135523
:1035300044F200022224C4F20402135D1942FCD0BA
:10354000436846F20001DB7BC4F200015BB21A0063
:10355000C032920050580C4C204050505258BFF38B
:103560005F8F1F21012219408A404EF20011CEF2D6
:1035700000018C4640F280115B099B0063445A5065
:103580001A60002070BDC046FFFFFEFF70B50D241D
:10359000436882B01C57002C12DB1F2263091440C1
:1035A0001E3AA2404EF200142033CEF200049B00DB
:1035B0001A51BFF34F8FBFF36F8F0D2443681C5711
:1035C0002423CA5C002A00D1EBE00D781A3BB5FB3E
:1035D000F3F083001B185B000201EB1A13438022F7
:1035E00052421A436B46D2B207331A7044F20000BB
:1035F0001A78C4F20400D2B2027425228A5C002A2E
:1036000000D1CCE00A200E79B6FBF0F5A8004019F5
:1036100040002A01301A1043802252420243D2B2A3
:103620001A7044F200001A78C4F20400D2B2827414
:1036300026228A5C002A00D1AFE00A200E7AB6FB6F
:10364000F0F5A800401940002A01301A10438022EA
:1036500052420243D2B21A7044F200001A78C4F205
:103660000400D2B202752A228A5C002A00D192E0BC
:103670008022886952420243D2B21A7044F200009A
:103680001A78C4F20400D2B2827527228A5C002A1A
:1036900000D17DE00A200E7BB6FBF0F5A8004019B2
:1036A00040002A01301A1043802252420243D2B213
:1036B0001A7044F200001A78C4F20400D2B2027602
:1036C00028228A5C002A61D00A200A690132D2B21B
:1036D000B2FBF0F5A80040194000121A2E01164363
:1036E000802252423243D2B21A7044F200001A7859
:1036F000C4F20400D2B282762922885C002843D02A
:103700000A254A69643AD2B2B2FBF5F6B500AD19A2
:103710006D003101521B0A43D2B21A7044F200020A
:103720001B78C4F2040293837F23917FC0010B4076
:103730002221034301209377535C034353542130E8
:103740002139135C1942FCD0230046F20002C03339
:10375000C4F200029B009858144D284098509B5882
:10376000BFF35F8F1F23234099404EF20013CEF228
:1037700000039C4640F280136409A4006444E150B5
:103780002160002002B070BD1870C7E71A70ACE766
:1037900001221A708DE71A7070E71A705CE71A70D0
:1037A0003FE76B4607331A7020E7C046FFFFFEFF76
:1037B000F0B5C6464B6900B5C3608B694160436193
:1037C0000023036103720D000400FFF78BFC0F223E
:1037D000AA56002A20DB4EF20013CEF200039C46CC
:1037E00040F2003891088900614440F2FF0C4346E2
:1037F00003206646CF58AB7B1040C0009B0133408E
:10380000864083404046B7433B430B5045F6187310
:103810009200C2F20003D4500D22AA56002A20DBE7
:103820004EF20013CEF200039C4640F2003891089D
:103830008900614440F2FF0C434603206646CF589E
:103840002B7B1040C0009B013340864083404046A4
:10385000B7433B430B5045F618739200C2F2000386
:10386000D4501122AA56002A1CDB4EF2001303206A
:10387000CEF200039C462B7CFF2540F20036104020
:10388000C0009B012B408540834091088900614422
:103890008F599200AF433B438B5145F61873C2F2E8
:1038A0000003D45045F24343C0F25203002023608A
:1038B00080BCB846F0BDC046F0B5C64600B582B083
:1038C000EFF3038445F61873103C64B2C2F20003B0
:1038D000A200D558E968C1B16B6828695B7BE846EE
:1038E0005BB21B1B5A1E9341DBB29C46E8B14246B9
:1038F000070048CF48C2634603706B69436088473E
:103900002B6913B1404606C806C3230046F20002E5
:10391000C033C4F200029B009958054801409950F9
:103920009B5802B080BCB846F0BD4046E3E7C046B5
:10393000FFFFFEFFEFF3038345F61872103B5BB207
:103940009900C2F200028A580121117246F2000267
:10395000C033C4F200029B009958024801409950BC
:103960009B587047FFFFFEFF002303600020704755
:10397000FF2010B540F600040B0A08401901091891
:10398000C4F2040489000B5900209B07DB0F13705D
:1039900010BDC0460023C4F204039C46090A490135
:1039A00061444B68002013807047C0460020C4F279
:1039B000040084461800090A90430004134049019A
:1039C0000343614400208B607047C046FF20012301
:1039D0000840834052B91B040022C4F204029446FA
:1039E000090A4901614400208B6070474FF6FF725D
:1039F0001340F1E70020C4F2040084461800090ACD
:103A0000490110B561440C6810402043934398432A
:103A10000860002010BDC0460023C4F204039C4689
:103A2000090A490161444B6800201B0C1380704750
:103A30000020C4F2040084460B0A5B01634458680A
:103A4000FF231940FE3B8B40000C99B203405B1AE8
:103A500059424B41002013707047C0460020C4F209
:103A6000040084461800090A9043000413404901E9
:103A7000034361440020CB607047C0460B0A10B579
:103A80005B01012A10D00022C4F204029446FF20F8
:103A90008022014052028A406344DC682243120CB7
:103AA00012040020DA6010BD0020C4F20400844635
:103AB000FF2001408A4011004FF6FF726344DC682A
:103AC000114021430A40ECE7F0B5DE4657464E462A
:103AD0004546E0B583B0EFF31082012383F31088ED
:103AE00045F61473C2F2000301931B6833B940F624
:103AF0000051C4F20401CB704033CB7001990B68C4
:103B000001330B6082F3108803889A46BBB380238D
:103B100040F600055B029946284B002240F2FF0860
:103B20009C464168C4F204050AE043461E40230156
:103B30009B1901329B0092B25851083192451ED018
:103B40004B468E880868340A1842EED043461E4021
:103B500023019C19A700644600977F599B192740B1
:103B60003C00009F01327C51674607403C00009FAB
:103B70009B0092B27C51083158519245E0D1EFF34D
:103B80001082012383F31088019B1B681BB10199EC
:103B90000B68013B0B60019B1B6833B940F6005179
:103BA000C4F20401CB708033CB7082F3108803B071
:103BB000F0BCBB46B246A946A046F0BDFFFFFEFFE3
:103BC00045F2542310B5C5F24F0303600800FFF718
:103BD0007BFF002010BDC04610B50800FFF774FF42
:103BE000002010BDF0B5EFF31084012383F310889B
:103BF00045F61473C2F20003186830B940F6005558
:103C0000C4F20405E8704030E870186801301860AC
:103C100084F31088D00321D4FF24080A0C4001014A
:103C200040F600000919C4F2040089000A50EFF3BD
:103C30001082012181F31088196811B119680139C6
:103C400019601B6833B940F60051C4F20401CB700F
:103C50008033CB7082F310880020F0BDFF2440F643
:103C60000005080A0C4001010819C4F2040580008F
:103C70004759034E3740164047514651D0E7C0469A
:103C8000FFFFFEFFF0B50400806B83B06D4688B186
:103C90002B000200C0CAC0C3E36B01710360636BF9
:103CA0009847A36B0BB106CD06C32B230022E25429
:103CB00003B0F0BD2800EFE740F21F0CF0B5574607
:103CC0004E464546DE466346E0B502690468137019
:103CD00040331370656A83B08033137001902E797E
:103CE000FF3B1E43F6B21674EE784BF6C0503343DA
:103CF000DBB253747023AE78CFF6F07036013340E8
:103D00000826334393702B788046013B5E42734113
:103D10006D7804336D002B43DBB2D370636840F2DF
:103D2000003743445C426341DB0177335371002326
:103D30009371B333D3714EF200131122CEF200030C
:103D400098468A56FF249608B6004644F359250043
:103D5000994603231340DB00984640468540A84619
:103D60004B7B4D469B0123408340404645F61878E7
:103D7000C2F20008854340462B43019DF351930056
:103D800016001D5046F20003C036C4F20003B60010
:103D9000F058624D2840F050F658BFF35F8F6646EA
:103DA00001201640B04006004EF20010CEF2000096
:103DB000814640F28015520992004A4456511660DD
:103DC0000F228A569608B600B14448460326C059C9
:103DD00016408346F00082464E7B5546B60126408B
:103DE00086402000A840824658465546A8430643D0
:103DF0004846C6514046019D960035501600C036D3
:103E0000B600F058454D2840F050F658BFF35F8F8C
:103E1000664601201640B04006004EF20010CEF279
:103E20000000814640F28015520992004A445651E2
:103E3000166010228A569608B600B14448460326FA
:103E4000C05916408346F00082464E7B5546B60167
:103E5000264086402000A840824658465546A84342
:103E600006434846C6514046019D9600355016000F
:103E7000C036B600F058294D2840F050F658BFF330
:103E80005F8F664601201640B04006004EF20010DB
:103E9000CEF20000814640F28015520992004A4459
:103EA000565116600E228A56497B9608B6004E443B
:103EB000F0598901814603201040C5002140484641
:103EC000AC40A940A04301434046F151019E9100FE
:103ED0000E501100C0318900CC58104D2C40CC50F0
:103EE000CB58BFF35F8F63460121134099400B000D
:103EF0004EF20011CEF200018C4640F280155209BC
:103F000092006244535113609F2233691A7003B0C8
:103F1000F0BCBB46B246A946A046F0BDFFFFFEFF7F
:103F200010B582B0EFF3038346F20002103B5BB2A0
:103F3000C033C4F200029B00995847480140995091
:103F40009B58EFF3038345F61872103B5BB2C2F245
:103F500000029B009B582D229A5CE2B99A69012AC3
:103F600024D940201A69117901431171D9690129B5
:103F700007D11020117901430820117111790143F3
:103F800011716946D27CD2B2CA71CA792D2201213F
:103F9000995402B010BDDA69002AFAD0032A07D07A
:103FA000022A48D0012A1AD0196906E01A69DDE709
:103FB000402019690A7902430A71CA7C186A596952
:103FC0000A541A6A01321A62DA69013ADA61002A7D
:103FD000DFD140211A6913798B431371D9E72A2164
:103FE000595C91B30F241F2019680C5720406109B8
:103FF000140084404EF200102031CEF200008900FF
:104000000C50BFF34F8FBFF36F8F80201969404270
:10401000CC7920431024C871087920430824087102
:104020000879A0430871042048704879904348718A
:104030002C201A54C1E7102019690A79024308207C
:104040000A710A7902430A71B7E7082019694A7AA6
:1040500082434A724870B0E7FFFFFEFF30B5EFF3CE
:10406000038346F20002103B5BB2C033C4F200028D
:104070009B0099583648014099509B58EFF30383B1
:1040800045F61872103B5BB29B00C2F200029958D1
:104090002723CB5C002B34D12923CB5C83BBCB699A
:1040A000002B3FD108697F23C2791340C371C0221E
:1040B00001E0013A1AB1C379DB09002BF9D10B6891
:1040C0001021595646F200020B00C033C4F2000220
:1040D0009B009C581E4D2C409C509B5800290BDB8C
:1040E0001F224B0911401E3A8A404EF200116033E4
:1040F000CEF200019B005A504022C3791343C37192
:1041000030BD26228A5C032A18D028228A5C24200B
:104110000C69085C0132A07428200A542722013B54
:104120008B54EDE70A6A4C690869A45C013B0132D3
:1041300084740A62CB61002BE2D1B4E728228A5C46
:10414000022AE4D13020085C0028D9D0DFE7C0463D
:10415000FFFFFEFF10B5EFF3038345F61872103B27
:104160005BB2C2F200029B009B5829229A5C1AB1F2
:1041700027229A5C012A49D0DA69DAB1196940220A
:10418000CB799343CB71C02301E0013B13B1CA79D2
:104190005206FAD4EFF3038346F20002103B5BB2FF
:1041A000C033C4F200029B0099581B48014099504B
:1041B0009B5810BD2A229A5C0AB30F201F211A684F
:1041C000105601404209012004008C404EF20011BB
:1041D0002032CEF2000192005450BFF34F8FBFF354
:1041E0006F8F802219695242CC792243CA7104220E
:1041F0004A704A7982434A712C229854BFE70822B8
:1042000019694B7A93434B724A70B8E72F329A5C24
:10421000002AB1D1B2E7C046FFFFFEFF70B5EFF351
:10422000038345F61872E021103B5BB2C2F2000234
:104230009B009C5823695A7A5972DD39D0B21140DB
:10424000D2062DD55A78520648D400252B220121BA
:104250002000A1542168DD71FFF72EFD2623E561C2
:10426000E25C0233E254A369226923622C23E55401
:10427000023BE554893301212000D371FFF702FD91
:10428000EFF3038346F20002103B5BB2C033C4F28B
:1042900000029B0099582748014099509B5870BDD7
:1042A0000029D2D102070DD52B22A25C8ABB29227C
:1042B000A15C4A425141B3220231DA712000FFF77A
:1042C000E1FCDDE72C22A25C002AD9D04207D7D539
:1042D0002B22A25C0121002AF0D1E8E70029B4D109
:1042E0005A785206D10F002ADCDA2B22A154082179
:1042F0005A7A8A435A7222685970526A1278013A7D
:1043000051424A4101210232DA705A790A435A7104
:10431000B6E700222621E261605C02316054A169A7
:1043200021622C21625402396254B332DA71293984
:10433000C4E7C046FFFFFEFF8368C26800205A60E2
:104340007047C0468021436830B5DA690906D368F2
:10435000546895680C430D431943836800205D61E0
:104360009961116952691C6159629A6230BDC046F7
:10437000F0B5C64600B50500806984B08C4690460D
:1043800001AC98B12300060086CE86C36346037154
:1043900043468360EB6903606B699847AB690BB177
:1043A00007CC07C304B080BCB846F0BD2000EDE7E1
:1043B000F8B5DE4657464E4645460100E0B5EFF3F8
:1043C0000383103B5BB21C0046F20005C034C4F20C
:1043D0000005A4006259264840F2003C02406251A8
:1043E00046F20002C4F200029046834698008044E0
:1043F00042466646925945F61872C2F2000280584B
:104400000A00866812329200B218526891464268D9
:104410001278012A0CD0436923B101314A46C9B24E
:10442000FFF7A6FFF0BCBB46B246A946A046F8BDC2
:10443000802740F2000A3F0637617761B76157462F
:104440007762B7625F4666593740675144466546B2
:104450006459BFF35F8F1F255C092B409A402300EE
:104460004EF200156033CEF200059B005A51D2E7A0
:10447000FFFFFEFF826830B5536E072001338B606B
:10448000D36A4EF20002C4F20102156A45F6A47224
:10449000C2F2000212682C0E0440A2402840C24022
:1044A0005B015B0F5B00DBB2DA40012300204A6056
:1044B0000B7030BD70B5554255418C6E013425B935
:1044C000A24202D2013A1A6070BD049D496BED0709
:1044D0000CD50078C902C90E03280CD9012009099E
:1044E000884382B180B903225A60EDE70078C9069B
:1044F000C90E0328F2D80C2001400439484241413A
:10450000C8B2002AEED110B902225A60DCE7002CB2
:10451000FAD0E8E7F0B5CE46474680B500283DDB47
:1045200040F2FF094EF2001403254E46CEF200047D
:10453000A44640F200370540ED00AE4083089B00E2
:104540006344DC598901B44326004C460C40AC401E
:104550003443DC5145F618738100C2F20003CA509F
:10456000030046F20002C033C4F200029B009958D7
:104570000C4C214099509B58BFF35F8F1F220123A1
:10458000024093404EF20012CEF20002944640F2F6
:10459000801240098000604483500360C0BCB9466B
:1045A000B046F0BDFFFFFEFFF0B54546DE4657467C
:1045B0004E460122E0B50D000B7C1100994004002D
:1045C00085B0C1604560002B00D102E1027440F269
:1045D0008072C0F240029446002063441B02A36034
:1045E0006B696361AB69A061E361EB699A46EFF3C4
:1045F000108C012383F310882A7C46F6FC71534209
:104600005A41C4F20401CF685301413B3B40CB60A7
:10461000CB688CF310884AF20053A1682E780B60A7
:10462000C862C86388642A7A6B68520812065F1EE3
:10463000032E00D1CFE0CA62802212060A614A61CD
:104640008A615246926948628862CA615246D2695A
:104650000A6252468F664F66D76A02AA90460122C6
:10466000524291460292424650603200002E00D0E3
:10467000EDE0380040F2030C5B084B44029301323A
:104680004B658B65002800D070E053461B78002BEB
:1046900000D079E0287853469B782BB35346DB78DB
:1046A00098469B01994643464E461B0133439B4621
:1046B000022800D1C5E0032800D1D3E04646731E8E
:1046C0009E417642B04640F2030943464E461E40A4
:1046D000B04640F20609C84446465B4633431B04D5
:1046E0001F4380235B041F4340F288080023464693
:1046F0008B638B51564640F221082033F35C4646CB
:104700005B03994653469E5D4B46760733431F43F2
:10471000AA23DB030B64012832D0E3681220CB60AC
:1047200063464F630B630A63697C22002856FFF7D8
:10473000F1FE52462223D15C0233D0562200FFF70D
:10474000E9FE52462323D15C0233D0562200FFF704
:10475000E1FE45F254030020C0F24703236005B098
:10476000F0BCBB46B246A946A046F0BD0023882057
:104770008B630B50AA232878DB030B640128CCD170
:104780000023CB640B65C8E753465B7828789846CE
:104790009B01994643464E461B0133439B460228E4
:1047A00052D003285BD04646731E9E417642B046E7
:1047B00040F2030943464E461E40B04640F2060909
:1047C000C84446465B4633431F4340F200131F4331
:1047D00061E70374FBE680235B021A4380231B0618
:1047E000CA620B614B618B6153469B694862886268
:1047F000CB615346DB690B6253468F664F66DF6AB7
:1048000002AB984601235B42029343465860002363
:10481000EA68606800934346FFF74CFE40F2030CE1
:104820004246664640F201085068A168020400064C
:10483000024316435046B4464646029BC06A324382
:104840001EE740F2090847E740F20908B9E7012EE0
:10485000DDD13800012240F2030C4B4610E740F254
:104860000308AEE740F2030836E7C046F0B5D64687
:104870004F464646C0B5EFF30383103B5BB21A00C8
:1048800046F20006C032C4F2000692009159204858
:1048900040F2003A0140915146F200018146C4F2D3
:1048A0000001980045185146695845F61871C2F242
:1048B000000140584168097801290AD043691BB1B9
:1048C00000220021FFF754FDE0BCBA46B146A846DD
:1048D000F0BD40F200088468C768A7604746A76437
:1048E000E76427654F469459274097515246AA5886
:1048F000BFF35F8F1F245A092340994013004EF2E3
:1049000000146033CEF200049B001951D6E7C04674
:10491000FFFFFEFF10B50020FFF74AFD10BDC046A7
:1049200010B50120FFF744FD10BDC0460368828A20
:1049300000201A807047C046036810314900CB5AE6
:10494000002013807047C04670B5C56904000E0092
:1049500088B0A5B120222900684602F005FA20227D
:104960003100280002F000FA2800A3699847E069A6
:1049700018B12022694602F0F7F908B070BD0D00A9
:10498000F2E7C04630B5010089B0EFF3038345F686
:104990001872103B5BB2C2F200029B009858EFF312
:1049A000038346F20002103B5BB2C033C4F2000244
:1049B0009B009C580A4D2C409C509B586B466A4665
:1049C000997043681B88138000231372036A019354
:1049D000836913B16946FFF7B7FF09B030BDC04620
:1049E000FFFFFEFFF0B5C64690464EF20012FF24D0
:1049F0000325CEF200029446220040F20037054023
:104A0000ED008901AA400C40AC4083089B00634440
:104A1000DE5900B596433443DC5145F618734246DF
:104A20008100C2F200035A50030046F20002C03374
:104A3000C4F200029B0099580C4C214099509B589D
:104A4000BFF35F8F1F220123024093404EF20012FA
:104A5000CEF20002944640F2801240098000604489
:104A60008350036080BCB846F0BDC046FFFFFEFF28
:104A7000F0B54E464546DE4657464CF20002CB683E
:104A8000E0B54E6983610B69C4F20502036200233D
:104A90009446C3610B8841605B02634403608B787A
:104AA0004A790C005B0311020B433179050083B096
:104AB000890700D57CE040210B43F178002900D123
:104AC0006BE040F2802003439BB240F2000CAB82CB
:104AD000022A00D170E0727820795201C00310439D
:104AE00037780190EFF31089012282F3108846F69F
:104AF000FC72C4F20402D06840F2100A804620889A
:104B0000834650465946401A010001208840010062
:104B100040468843D060D26889F3108847F6FF5139
:104B20002A680B401380634613826B469888D081B5
:104B300017733379990747D48A2106205354205696
:104B4000002803DB2A00217AFFF74CFF07202056BC
:104B5000002803DB2A00617AFFF744FF0620305665
:104B6000002803DB2A00317AFFF73CFF072030568C
:104B7000002803DB2A00717AFFF734FF00232B6142
:104B800044F243430020C5F24123AB6003B0F0BCC4
:104B9000BB46B246A946A046F0BD002A00D093E726
:104BA00048F2000213439BB240F2000CAB8292E742
:104BB00040F240410B4380E74AF624128900C0F2DC
:104BC0000002525A944686E703210B43873153541F
:104BD0000120893900F0F0F92A683379ACE7C04642
:104BE000F0B5454657464E46DE46E0B505000F682F
:104BF0006A683800526983B001924A688C689046AE
:104C0000864BA44618401A4023402C6886B2A680E2
:104C100096B2A6829EB22681120C1B0C060CE68070
:104C2000E282638143463B439846C02342469B054C
:104C30001A4200D08CE0CB68002B00D1E0E01A894A
:104C40009246160545D540F2900C6646A2535E8901
:104C500040F29C0CB04666464246A2539A8940F206
:104C60009E0C904662464646A6521A6840F2940848
:104C7000944692B2914642464E46A6526246120170
:104C8000120D904640F2960946464A46A6526246A2
:104C9000120F944640F2920866464246A6545A685D
:104CA00040F29808944692B2914642464E46A65229
:104CB00062461201120D904640F29A0946464A4653
:104CC000A6526246120F944640F293086646424648
:104CD000A6545246960525D490235246E2520A8A9B
:104CE000103BE252019BDB7873B11F2326889E4361
:104CF000002800D189E000F0E1FA1F36301A80B2B6
:104D00002080AB8A1843A88244F243430020C5F2B6
:104D10004123EB602F6103B0F0BCBB46B246A9460D
:104D2000A046F0BD9A7C40F2A60894466646DA7C1E
:104D300040F2A80C16434246A654DA8990466246D1
:104D40004646A6521B8A9C46AA236246E252C3E705
:104D50004EF200030722C4F201031B6A45F6A47B4E
:104D60009A461B0E13409946C2F2000B5B464E4614
:104D70001B68B34056463240D34040F2E832B3FBA2
:104D8000F2F341F28832534344F24022C0F20F0260
:104D9000B3FBF2F20132072A35D380235B05994633
:104DA00043464E4633409A4646464B461E420CD03A
:104DB00040F2DE0A5646D3B2A35566464B46334010
:104DC0005E1EB3410133FF339A4680239B0599460B
:104DD00043464E4633420CD040F2DF084346D2B23F
:104DE000E2546346334212D1534640F20022134349
:104DF0009A4653469BB26382CB68002B00D01EE7D5
:104E000040F2000A68E70722C7E7202075E753460B
:104E100040F2022213439A46EBE7C046FFFFFFCF62
:104E200010B50020FFF7AEFD10BDC0464EF20003E6
:104E3000262245F68C41C4F20103985C1B6A80006F
:104E4000C2F2000141585B015B0F45F6A472D940E4
:104E5000C2F20002116070474EF2000340F2FE32CF
:104E60004B49C4F2010370B599524CF20002002084
:104E700043F6C871C4F27E02505445F68C4446F69F
:104E80000042C2F20004C0F2DC22226041F20022A1
:104E9000C0F27A02626048F2000242F20041A2606F
:104EA00022612622C0F2F401E160995C1A6A89004D
:104EB00061585201520F45F6A475D14040F2134299
:104EC000C2F20005296098540921A222995440F2A7
:104ED0008042995C002954D04EF20003002240F237
:104EE0008141C4F201035A5401395A54A0329A5CE8
:104EF000CAB136229A5C1AB93C215A5CD207FCD559
:104F00004EF20002A021C4F20102535CDB06D80F6E
:104F1000002BFADB50544EF20002A021C4F2010231
:104F2000535CDB06FCD44EF2000200213623C4F2AF
:104F30000102D1543C31535CDB07FCD50121312304
:104F4000D1544FF6C473C4F27E03197040F20023AB
:104F500000201362DB3BFF3BD054D05C136A80001F
:104F600020585B015B0FD84040F2FE3328600948AF
:104F7000D0524CF2000343F6C872C4F27E03995437
:104F800070BD013140F2C440995400F015F8A3E718
:104F900003A5FFFF00A5FFFF44F200032822002124
:104FA000C4F20403995470477047C04600BEFEE740
:104FB00001380028FCD1704745F6A4724CF6002356
:104FC0004143C2F2000270B51468C3F69A330D0073
:104FD000B3FBF4F4080040F2E8320023002100F0B3
:104FE0008BF931B9B0FBF4F0800808B1FFF7E0FFAE
:104FF00070BDA000B5FBF0F040F2E83200230021C4
:1050000000F07AF90029F0D001204042FFF7D0FFEC
:10501000EEE7C046F8B546F2000340F2401245F60E
:10502000D46500240127C4F200039E5AC2F2000591
:10503000B6B23300E340E0B21F4202D02B6803B1A6
:10504000984701340435102CF3D146F2000340F2A6
:105050003012C4F200039E52F8BDC04646F2000072
:105060000023C4F200004AF6A402C0F200029A181B
:1050700011781A00C032920001331150202BF2D166
:105080007047C04670B5EFF31081012383F3108899
:1050900045F698734000C2F200031A5A1AB11A5A20
:1050A000013A92B21A521B5A83B94EF2000240F2F0
:1050B000FE354AF63014C4F20102565B054BC0F2CD
:1050C0000004205A334383439BB2535381F3108827
:1050D00070BDC04600A5FFFF70B5EFF3108101233E
:1050E00083F3108845F698724000C2F20002135A0A
:1050F00083B94EF200044AF6301540F2FE36C4F28F
:105100000104C0F20005A35B2D5A2B434AF200555F
:105110002B43A353135A01339BB2135281F31088CC
:1051200070BDC04645F6A072C2F2000203001068CE
:1051300010B558B1032103338B4346F6B871C31839
:10514000C2F200018B4207D8136010BD45F6B8705B
:10515000C2F200001060EDE701F0ECFD0C230360EB
:1051600001204042F1E7C04600BE704710B500F094
:1051700003F8FDF7E3FBFEE7F0B54EF6005340F20F
:105180000005CEF20003C0F2000583B09D60002050
:10519000FDF7B8FBFFF760FE6B460027DC1D2770AC
:1051A00001202378FFF798FFEFF31081012686F3A3
:1051B000108846F6FC73C4F204039A683C48024027
:1051C0009A609A6881F3108840F60001C4F20401E5
:1051D0000A68D207D20F22700A68D207D20F227053
:1051E0000A68D207D20F2270EFF3108186F310887D
:1051F00080229868520502439A609B6881F3108868
:105200000120FFF73FFF0120FDF77CFB40F6005334
:10521000284AC4F200039F8027491A802A6841F275
:10522000000051189960DA6046F2000240F2201145
:10523000C4F20002505245F6B87245F6A040C2F2E0
:105240000002C2F200009E800021121A01F095FDBA
:1052500044F2000045F68C424AF6A451C2F2000026
:10526000C2F20002121AC0F2000101F07DFD45F603
:10527000844545F68843C2F20005C2F200035B1B79
:105280009E10002B05DD002408CD01349847A6426E
:10529000FADCFFF7CBFDFFF77FFE0220FDF732FBC4
:1052A000FFF7DCFE0020FFF77FFE03B0F0BDC04635
:1052B000FFFFFFEF00A5FFFF00FCFFFF1C21012304
:1052C0001B04984201D3000C10391B0A984201D3E9
:1052D000000A08391B09984201D30009043902A2C7
:1052E000105C40187047C04604030202010101012E
:1052F0000000000000000000F0B54FF6FF75CE463C
:10530000474699462B0015400E0029000340140C17
:1053100080B50700000C59434543634360435B1964
:105320000C0CE4188C46A54203D980235B029846F6
:105330004044230C61461B1820044FF6FF740C40B8
:10534000494679437243C91800198918C0BCB94647
:10535000B046F0BDF8B557464E46DE4645461C0001
:10536000E0B517000D000903420F490A114362001E
:10537000520DC30020039246400AE20F7C0F6E00DC
:1053800004439346A146760DED0FFF00954200D1F0
:10539000A0E05046301A8446002800DC81E05246E6
:1053A000002A00D1C0E040F2FF72964200D12CE109
:1053B000802220001204104381466246382A00DD14
:1053C00073E11F2A00DDDEE1604620224C46121AFE
:1053D00094403800A04664469740E04044467A1E18
:1053E000974104434A466046C2402743891ADC1B62
:1053F000A3429B415842081A030200D4DCE0400259
:10540000430A98464346002B00D10FE14046FFF780
:1054100055FF0300083B202221004046D21A984045
:10542000D1409C400843B34200DA0EE19B1B5A1C5A
:105430001F2A00DDB2E02023010026009B1A9C40B9
:105440009940D640631E9C413143D04000260C4316
:10545000630709D00F232340042B05D0231DA3424B
:10546000A441644200191C00030200D4A7E040F2EA
:10547000FF7101368E4200D1C2E0CB4BE4081840E8
:105480004307400223430E40040B3205ED0722433D
:105490002A4318001100F0BCBB46B246A946A046FC
:1054A000F8BD002850D05046801B8446002E00D006
:1054B00030E108001843002800D1C3E16246501EC5
:1054C000012A00D12CE240F2FF74A44500D1DCE1B6
:1054D000844627E15246B21A9446002A00DCB8E01E
:1054E0005246002A48D040F2FF72964200D1C2E1F3
:1054F000802220001204104381466246382A6EDC66
:105500001F2A00DC6FE14846203AD0406246202A3C
:1055100005D064464022121B4C46944027433C0071
:10552000621E944104435EE022003A43002A00D107
:105530000FE10200013A012800D193E140F2FF702F
:10554000844562D0944638E740F2FE74701C0442F1
:1055500000D0C8E008001843002E00D078E10028F1
:1055600000D1D0E148463843002800D0E2E1DB0812
:105570004A071343CC082BE022003A43002A00D10B
:105580007EE162466046013A012800D1E6E040F241
:10559000FF70844500D16EE19446AEE701001F3BE9
:1055A000D940202A03D040239A1A90400443631E16
:1055B0009C41002000260C43630700D04AE7B44614
:1055C000E40843072343C40840F2FF72944520D007
:1055D00040F2FF7662462403240B164055E74C4602
:1055E0003C43621E9441E4189C429B41584240183F
:1055F0000302E1D540F2FF7301369E4200D0B8E0CD
:1056000040F2FF76002400233FE7DB084A071343FC
:10561000CC081A002243002A00D1EEE180221203B6
:105620001443240340F2FF76240B2EE72000FFF7FB
:1056300045FE030018331F2B00DCECE608388440DD
:1056400020000024B34200DBF0E6574AF61A10406F
:10565000FEE682B35246921B9446002E00D1B1E082
:1056600040F2FF72924500D117E1802212041143EB
:105670006246382A00DD17E11F2A00DD8BE1604613
:1056800020220C00121A6646180093409440F04005
:105690005A1E9341F14004431C438944E419BC421F
:1056A0008041404256464844A2E74A463A431700E2
:1056B0007A1E97419BE640F2FE70721C104200D0A9
:1056C000A5E00A001A43002E00D0FFE0002A00D116
:1056D0004FE122003A43002A00D04FE14A07DB089D
:1056E0001343CC0874E74846DC1B0A1AA3428041E6
:1056F0004042804610004246801A02008046120254
:1057000000D595E003002343002B00D07AE6002467
:1057100000255DE740F2FF70824500D1B5E08020B2
:10572000000401436046382840DC62461F2800DD43
:10573000BFE020200C00801A1D0083408440D5402B
:10574000D1404A46581E83412C43521A9146234366
:105750002FE0DB084A071343CC0835E7DC199C42ED
:105760009B4149445B42C8180126030200D423E749
:1057700002260D4A63081040012214401C43C3074F
:105780001C43400864E64C46203AD4406246202A36
:1057900005D060464022121A4846904007437A1EC0
:1057A0009741274323E6C046FFFF7FFF0B43591E67
:1057B0008B41FC1AA74280414B4640425D4656460B
:1057C000181A19E60A001A43002A00D1C4E06246FA
:1057D0006046013A012800D1ECE040F2FF708445B8
:1057E0005BD0944644E7604620224C46121A94400F
:1057F0003800A04664469740E04044467A1E9741F0
:1058000004434A466046C2403C438918EBE640F2F6
:10581000FF70824200D1F3E6DF199F429B41494469
:1058200058420818C4077F0816003C434008C3E6E6
:10583000FC1AA742BF414B467F42591ACB1B9846E0
:105840005D46DFE56307FF085D463B43E408BBE6D2
:10585000002800D085E04B463B43B3B980240025A7
:105860002403DBE6DC1B4A46A3429B41881A5B42C9
:105870000126C01AC0E54A07DB081343CC08C8E676
:105880004A07DB081343CC089EE64B464A46FF080E
:105890005B075D463B43D408BBE64B464A465B0785
:1058A000FF083B43D408B4E60B431C00631E9C4135
:1058B000F4E60C002038C440202A03D04020801A8F
:1058C00081400B43591E8B41234372E7002AE4D0E9
:1058D00022003A43002ACED04A07DB081343802235
:1058E000CC081203144208D04946C908114204D119
:1058F0004A460C00FB08520713435A0FDB005207BD
:10590000DB08134385E64B463B43002B00D1FEE604
:105910004B464A46FF085B075D463B43D40857E6C3
:10592000FC1AA742BF414B467F42581A5D460126EA
:10593000C01B61E54A46DC1B881AA34292415242D1
:10594000801A02023DD5FC1AA742BF414B467F4256
:10595000581A5D46C01B7BE56307FF083B43E4081C
:1059600032E648463843DB0888BB4A071343CC0875
:105970004FE66307FF083B43E40829E6DC199C4235
:105980009B4149445B42C818030200D414E61D4BF6
:105990000126184010E60C00203AD4406246202A26
:1059A00004D040226046121A91400B435A1E934184
:1059B0001C4373E6DC19BC42BF4149447F42C8190D
:1059C000D2E623000343002B00D1A0E6F4E548070C
:1059D000CC088021090303430C4208D04A46D00872
:1059E000084204D15D460400FB0851070B435A0FDF
:1059F000DB00DB08520713430BE6002340F2FF767F
:105A00001C0042E5FFFF7FFFF0B557464E46454676
:105A1000DE46E0B58146050048000C03400D924685
:105A20001F0087B0240BCE0F002800D17DE140F28B
:105A3000FF73984200D19AE16B0FE4001C4380236E
:105A4000D14A1B04234398469446030040F20009C0
:105A500040F2000B6344ED0001937B003C035B0DBF
:105A60005046240BFF0F002B00D13CE140F2FF72A7
:105A7000934200D190E1420FE400144380221204CB
:105A80001443C14AC10094460020019A6344D31ACA
:105A9000019333004A467B4002930F2A28D8BB4B20
:105AA00092009A58974602965B46022B16D0032B1B
:105AB00000D1B7E2012B00D0F1E000220024002544
:105AC000029B12052243DB071A432800110007B08E
:105AD000F0BCBB46B246A946A046F0BD40F2FF72FC
:105AE00000240025ECE7A0460D0083460297DBE783
:105AF000444500D2E9E100D1E4E12F004046002511
:105B0000019B013B01930E0E0A024FF6FF71240226
:105B100026433140240CB0FBF4FC8B4661465B46C7
:105B2000594363466343C01A0304380C1843814247
:105B300008D901235B42634480199846864200D805
:105B400028E2C446401AB0FBF4F95B464946594383
:105B50004B464FF6FF786343C01A434600043B4070
:105B60001843814206D94B4680195F1E864200D8F1
:105B700007E2B9466346411A18044B4603434FF601
:105B8000FF7C98461F0C130C9A466046434618400B
:105B90006346134004971F0047430397049F0593F0
:105BA0007B439946534658435F43039B48441B0C31
:105BB0009C466044814503D980235B029C46674430
:105BC000030C994603044FF6FF704F449946039B1C
:105BD00018404844B94202D312D1854210D2012361
:105BE0005B424344AD18994695429B415B429C46BB
:105BF000B44461448E4200D2B0E100D1ABE1C8466A
:105C0000281A8542AD41CF1B6D427F1BBE4200D199
:105C1000E9E1B7FBF4F123005D464B434D43FF1A26
:105C20003F04030C1F43BD4200D97CE17F1BB7FB3F
:105C3000F4F56C435B463F1B4FF6FF746B433F0428
:105C400020409B463843834200D963E15B46090408
:105C50000D43C01A059B2F0C1C007B434FF6FF71B0
:105C60009C46534629404C43594361448946210C84
:105C700049445F438C4503D980235B029C466744BB
:105C80000B0C9C46BC444FF6FF7709043C400919B5
:105C9000604500D20AE100D105E10122154340F23E
:105CA000FF3C019A6244002A00DCB2E06B0700D09E
:105CB00043E1ED084346DB0107D54346344A40F251
:105CC000004C13409846019A624440F2FE718A42A9
:105CD00000DD03E7434659070D4340F2FF715C02C4
:105CE000240B0A40ECE651462143002900D17FE015
:105CF000002C00D100E12000FFF7E0FA02000B3A8F
:105D00001D239B1A52460100DA40534608398B4046
:105D10008C4019001443019B9C466044030040F2F0
:105D2000F33C634400200193B3E64B46234398467B
:105D3000002B55D0002C00D1CEE02000FFF7BEFA9A
:105D4000010002000B391D235B1A49461000D9409F
:105D5000083884400B004D462343984685400D4843
:105D600040F20009831A40F2000B019375E64B469E
:105D7000234398465BBB40F2FF73002540F20809BD
:105D800040F2020B019368E601FCFFFF38A9000016
:105D9000FFFFFFFE0DFCFFFF5146214359B90223CF
:105DA0004A461A439146A54A019B944663440024FF
:105DB000022001936DE603234A461A4391469F4A07
:105DC000019B9446634451460320019361E640F2EF
:105DD000FF73A04640F20C0940F2030B01933CE62E
:105DE0000023002540F2040940F2010B019334E640
:105DF0004A4601231A4391460024012049E6002324
