:1000000040740020A957000051560000A557000079
:10001000A5570000A5570000A5570000A5570000F0
:10002000000000000000000000000000A5570000D4
:10003000A557000000000000A5570000312A00006D
:1000400065320000D131000005330000513300005B
:1000500065320000D131000005330000513300004B
:10006000E943000025450000A94E0000E5460000D8
:1000700065320000D131000005330000513300002B
:100080005D54000000000000A94E0000FD3D00008E
:10009000514F00005D4F00001D46000000000000B1
:1000A000A94E000000000000813D0000000000009B
:1000B000FD480000000000000000000000000000FB
:1000C000FFFFFFFFFFFFFFFFFFFFFFFFFFFFFFFF40
:1000D000FFFFFFFFFFFFFFFFFFFFFFFFFFFFFFFF30
:1000E000FFFFFFFFFFFFFFFFFFFFFFFFFFFFFFFF20
:1000F000FFFFFFFFFFFFFFFFFFFFFFFFFFFFFFFF10
:10040000FFFFFFFFDFCEFFFFFCFF0F00FFFF0F002E
:10041000FCFF0F00FFFF0F00FCFF0F00FFFF0F00AE
:10042000FCFF0F20FFFF0F20FCFF7F40FFFF7F40FE
:10043000FCFF0D40FFFF0D40FFFFFFFFFFFFFFFF31
:10044000FFFFFFFFFFFFFFFFFFFFFFFFFFFFFFFFBC
:10045000FFFFFFFFFFFFFFFFFFFFFFFFFFFFFFFFAC
:10046000FFFFFFFFFFFFFFFFFFFFFFFFFFFFFFFF9C
:10047000FFFFFFFFFFFFFFFFFFFFFFFFFFFFFFFF8C
:10048000FFFFFFFFFFFFFFFFFFFFFFFFFFFFFFFF7C
:10049000FFFFFFFFFFFFFFFFFFFFFFFFFFFFFFFF6C
:1004A000FFFFFFFFFFFFFFFFFFFFFFFFFFFFFFFF5C
:1004B000FFFFFFFFFFFFFFFFFFFFFFFFFFFFFFFF4C
:1004C000FFFFFFFFFFFFFFFFFFFFFFFFFFFFFFFF3C
:1004D000FFFFFFFFFFFFFFFFFFFFFFFFFFFFFFFF2C
:1004E000FFFFFFFFFFFFFFFFFFFFFFFFFFFFFFFF1C
:1004F000FFFFFFFFFFFFFFFFFFFFFFFFFFFFFFFF0C
:1005000010B545F6B844C2F20004237863B940F24E
:100510000003C0F200032BB14BF6B000C0F20000A4
:1005200000E000BF0123237010BDC04640F200036D
:10053000C0F2000310B54BB145F6BC414BF6B0001C
:10054000C2F20001C0F2000000E000BF10BDC046D2
:1005500010B501F0D9FD01F0FDFE040090B14AF2A2
:10056000D4701721C0F2000007F05AFC4AF664006C
:100570002421C0F2000007F053FC012401F0F0FD3B
:10058000200010BD4AF61C001B21C0F2000007F03D
:1005900047FC4AF6B0002921C0F2000007F040FCF9
:1005A000EEE7C04610B582B001F0AEFD01F0D2FE1C
:1005B0000400A8B14AF6F4003421C0F2000007F0AC
:1005C0002FFC45F6D543C2F200031A78002A3AD030
:1005D00045F6D4430022C2F200031A7002B010BDE7
:1005E0004AF660103F21C0F2000007F019FC45F602
:1005F000D442C2F2000213780133DBB213700C2B29
:1006000001D91470EAE745F6D542C2F2000211782A
:100610000129E3D10A2BE1D94AF6B813C0F200034D
:10062000147001934FF6FF731022009314202023BF
:10063000A33101F01FF94AF61C004921C0F2000065
:1006400007F0EEFBCAE701221A704AF64C13C0F21B
:10065000000301934FF6FF73A4210093142020237D
:100660000F3201F007F94AF2D4703B21C0F20000CA
:1006700007F0D6FBB2E7C046002370B588B005226C
:10068000002106A8059345F6E04406F094FE45F6E1
:10069000D840C2F20004C2F20000227803789342EC
:1006A00003D1A1788378994228D021680160267906
:1006B0000D0A06714AF6CC100B0CEDB2090EDBB236
:1006C0000291019659210095C0F2000007F0A8FBA5
:1006D0005A22A52305A802704370A1788170617821
:1006E000C1702178017121794171E178C271817104
:1006F0000372092101F05CFE08B070BD6178437897
:100700009942D2D1217903799942CED1E178C37847
:100710009942CAD1F0E7C046A5225A2145F6E043E6
:1007200010B584B001A801704270C2F200039C7839
:1007300084705C78C4701C7804711C794471DB7817
:10074000C17183710272513901F032FE04B010BDE3
:10075000F8B50A240026002702F0EEF802000B008C
:100760003000390005F014F9013CE4B206000F0036
:10077000002CF1D100230022C4F2240305F062FC16
:1007800048F600030022C4F2C30304000D0005F084
:1007900075FF06000F004BF6520045F2EB112200E8
:1007A0002B00C8F21E50C4F20A0106F0EDF9020057
:1007B0000B003000390005F045FC48F6000300222C
:1007C000C4F2C30305F03EFC09F02AFD4DF60043D8
:1007D0000022C4F2AE0305F035FC4DF6833247F635
:1007E000E113CDF6B542C3F66B7305F0D1F80B00FB
:1007F00000210200C3F6F071002005F023FC46F250
:10080000666241F26623C6F26662C4F2710306F0C4
:10081000BBF900230022C3F6E07305F0B9F8040029
:1008200002004AF648200D000B00C0F20000202113
:1008300007F0F6FA29002000F8BDC04600B585B0E3
:10084000FFF786FF00230022C4F2240305F016FF01
:1008500009F03AFC06F02AFD0A2145F6E04390FB38
:10086000F1F1C2F20003D97010238A0052180293EA
:100870001033019352000C3B821A0093072001F0C1
:10088000EBF905B000BDC046F0B5C64600B586B070
:100890000300080001A98C464AF6A8216446C0F26C
:1008A0000001E0C9E0C40D682560097921710A2AB8
:1008B0002ED00024411E8846B3FBF2F61500614697
:1008C00075435D1B495D45462700013429551900D4
:1008D00033009142F0D20023002203558256791052
:1008E0002D3A53425A41D3B28A420DDC461CFF18BE
:1008F0007618C31841000024FA1A55561C571D706B
:1009000001335454B342F6D106B080BCB846F0BDB2
:10091000002BCEDA2D2101245B420170CAE7C046CC
:1009200070B50400082516E045F62460002240F268
:100930000111C2F2000003F0ADFA45F62460013D5A
:10094000012240F202116400C2F20000EDB203F095
:10095000A1FAE4B2ADB145F62460002240F20211E2
:10096000C2F2000003F096FA63B2002BDCDA45F61F
:100970002460012240F20111C2F2000003F08AFA61
:10098000DBE745F62460002240F20211C2F20000CB
:1009900003F080FA70BDC04670B50500102448F21F
:1009A000000615E045F62460002240F20111C2F273
:1009B000000003F06FFA45F62460013C012240F28A
:1009C0000211C2F20000E4B203F064FA6D00A4B1B7
:1009D00045F62460002240F20211C2F2000003F04A
:1009E00059FA2E42DED045F62460012240F2011170
:1009F000C2F2000003F04EFADDE745F62460002263
:100A000040F20211C2F2000003F044FA70BDC04689
:100A100070B5050045F62460002240F20051C2F294
:100A2000000003F037FA45F62460002240F203117B
:100A3000C2F2000003F02EFA2A20FFF771FF45F6FC
:100A40002460012240F20311C2F2000003F022FAF6
:100A500045F62460012240F20051C2F2000003F08A
:100A600019FA45F62460002240F20311C2F2000098
:100A700003F010FA0020FFF753FF45F6246001222F
:100A800040F20311C2F2000003F004FA45F62460BC
:100A9000012240F20051C2F2000003F0FBF945F6DA
:100AA0002460002240F20311C2F2000003F0F2F9C8
:100AB0000020FFF735FF45F62460012240F20311C4
:100AC000C2F2000003F0E6F945F62460012240F28C
:100AD0000051C2F2000003F0DDF945F62460002267
:100AE00040F20311C2F2000003F0D4F90120FFF735
:100AF00017FF45F62460012240F20311C2F2000004
:100B000003F0C8F945F62460012240F20051C2F218
:100B1000000003F0BFF945F62460002240F2031103
:100B2000C2F2000003F0B6F93F20FFF7F9FE45F6E8
:100B30002460012240F20311C2F2000003F0AAF97E
:100B400045F62460002240F20051C2F2000003F09A
:100B5000A1F945F62460002240F20311C2F2000020
:100B600003F098F92B20FFF7DBFE45F62460012205
:100B700040F20311C2F2000003F08CF945F6246044
:100B8000012240F20051C2F2000003F083F945F661
:100B90002460002240F20311C2F2000003F07AF94F
:100BA0000020FFF7BDFE45F62460012240F203114C
:100BB000C2F2000003F06EF945F62460012240F213
:100BC0000051C2F2000003F065F945F624600022EE
:100BD00040F20311C2F2000003F05CF90020FFF7BD
:100BE0009FFE45F62460012240F20311C2F200008C
:100BF00003F050F945F62460012240F20051C2F2A0
:100C0000000003F047F945F62460002240F203118A
:100C1000C2F2000003F03EF90020FFF781FE45F626
:100C20002460012240F20311C2F2000003F032F905
:100C300045F62460012240F20051C2F2000003F0A8
:100C400029F945F62460002240F20311C2F20000A7
:100C500003F020F9EF20FFF763FE45F62460012240
:100C600040F20311C2F2000003F014F945F62460CB
:100C7000002240F20051C2F2000003F00BF945F6E9
:100C80002460002240F20311C2F2000003F002F9D6
:100C90002C20FFF745FE45F62460012240F20311A7
:100CA000C2F2000003F0F6F8F02640F2401445F6D8
:100CB0002460012240F20051C2F2000003F0EAF881
:100CC00045F62460002240F20311C2F2000003F056
:100CD000E1F82800FFF760FE45F62460012240F2AB
:100CE0000311C2F20000013C03F0D4F8002CDED165
:100CF000013E002ED9D170BD10B545F62464C2F274
:100D00000004012240F20211200003F0C3F8002287
:100D100040F20411200003F0BDF840F2E83140F247
:100D2000F41004F067FC012240F20411200003F0EB
:100D3000B1F840F2E83140F2F41004F05BFC00221C
:100D400040F20051200003F0A5F8002240F2031108
:100D5000200003F09FF81120FFF7E2FD012240F28E
:100D60000311200003F096F840F2E831782004F0F7
:100D700041FC002240F20051200003F08BF80022D9
:100D800040F20311200003F085F83A20FFF7C8FD78
:100D9000012240F20311200003F07CF8012240F20E
:100DA0000051200003F076F8002240F203112000E9
:100DB00003F070F80520FFF7B3FD012240F20311A4
:100DC000200003F067F8002240F20051200003F0F9
:100DD00061F8002240F20311200003F05BF8C52007
:100DE000FFF79EFD012240F20311200003F052F8AC
:100DF000012240F20051200003F04CF8002240F2A2
:100E00000311200003F046F81A20FFF789FD0122A4
:100E100040F20311200003F03DF8002240F200519F
:100E2000200003F037F8002240F20311200003F005
:100E300031F83620FFF774FD012240F20311200043
:100E400003F028F8012240F20051200003F022F8BC
:100E5000002240F20311200003F01CF86020FFF78D
:100E60005FFD012240F20311200003F013F800227D
:100E700040F20051200003F00DF8002240F203116F
:100E8000200003F007F8B220FFF74AFD012240F2EC
:100E90000311200002F0FEFF012240F20051200069
:100EA00002F0F8FF002240F20311200002F0F2FFEE
:100EB0000520FFF735FD012240F20311200002F06A
:100EC000E9FF012240F20051200002F0E3FF00227E
:100ED00040F20311200002F0DDFF0520FFF720FDA6
:100EE000012240F20311200002F0D4FF012240F25F
:100EF0000051200002F0CEFF002240F2031120003A
:100F000002F0C8FF0020FFF70BFD012240F20311A1
:100F1000200002F0BFFF012240F20051200002F049
:100F2000B9FF002240F20311200002F0B3FF33208A
:100F3000FFF7F6FC012240F20311200002F0AAFFA5
:100F4000012240F20051200002F0A4FF002240F2F2
:100F50000311200002F09EFF3320FFF7E1FC012285
:100F600040F20311200002F095FF002240F20051F0
:100F7000200002F08FFF002240F20311200002F057
:100F800089FFB720FFF7CCFC012240F203112000BB
:100F900002F080FF012240F20051200002F07AFFAF
:100FA000002240F20311200002F074FF0520FFF739
:100FB000B7FC012240F20311200002F06BFF002277
:100FC00040F20051200002F065FF002240F20311C0
:100FD000200002F05FFFBB20FFF7A2FC012240F2DD
:100FE0000311200002F056FF012240F200512000C0
:100FF00002F050FF002240F20311200002F04AFFED
:101000003F20FFF78DFC012240F20311200002F087
:1010100041FF002240F20051200002F03BFF00227D
:1010200040F20311200002F035FFC020FFF778FCEA
:10103000012240F20311200002F02CFF012240F2B5
:101040000051200002F026FF002240F20311200090
:1010500002F020FF2C20FFF763FC012240F2031175
:10106000200002F017FF002240F20051200002F0A1
:1010700011FF002240F20311200002F00BFFC220FA
:10108000FFF74EFC012240F20311200002F002FFA4
:10109000012240F20051200002F0FCFE002240F24A
:1010A0000311200002F0F6FE0120FFF739FC0122B7
:1010B00040F20311200002F0EDFE002240F2005148
:1010C000200002F0E7FE002240F20311200002F0AF
:1010D000E1FEC320FFF724FC012240F203112000AF
:1010E00002F0D8FE012240F20051200002F0D2FEB0
:1010F000002240F20311200002F0CCFE0F20FFF787
:101100000FFC012240F20311200002F0C3FE002276
:1011100040F20051200002F0BDFE002240F2031117
:10112000200002F0B7FEC420FFF7FAFB012240F2D4
:101130000311200002F0AEFE012240F20051200017
:1011400002F0A8FE002240F20311200002F0A2FEED
:101150002020FFF7E5FB012240F20311200002F0FE
:1011600099FE002240F20051200002F093FE00227E
:1011700040F20311200002F08DFEC620FFF7D0FBE5
:10118000012240F20311200002F084FE012240F20D
:101190000051200002F07EFE002240F203112000E8
:1011A00002F078FE0120FFF7BBFB012240F20311A1
:1011B000200002F06FFE002240F20051200002F0F9
:1011C00069FE002240F20311200002F063FED020ED
:1011D000FFF7A6FB012240F20311200002F05AFEA5
:1011E000012240F20051200002F054FE002240F2A1
:1011F0000311200002F04EFEA420FFF791FB012214
:1012000040F20311200002F045FE012240F200519D
:10121000200002F03FFE002240F20311200002F005
:1012200039FEA120FFF77CFB012240F203112000D0
:1012300002F030FE002240F20051200002F02AFEAF
:10124000002240F20311200002F024FEE820FFF704
:1012500067FB012240F20311200002F01BFE012275
:1012600040F20051200002F015FE002240F203116E
:10127000200002F00FFE0320FFF752FB012240F294
:101280000311200002F006FE002240F2005120006F
:1012900002F000FE002240F20311200002F0FAFDED
:1012A000E920FFF73DFB012240F20311200002F08C
:1012B000F1FD012240F20051200002F0EBFD00227E
:1012C00040F20311200002F0E5FD0920FFF728FBA2
:1012D000012240F20311200002F0DCFD012240F265
:1012E0000051200002F0D6FD002240F20311200040
:1012F00002F0D0FD0920FFF713FB012240F2031199
:10130000200002F0C7FD012240F20051200002F04F
:10131000C1FD002240F20311200002F0BBFD0820B5
:10132000FFF7FEFA012240F20311200002F0B2FDA5
:10133000002240F20051200002F0ACFD002240F2F9
:101340000311200002F0A6FDE020FFF7E9FA0122D8
:1013500040F20311200002F09DFD012240F20051F5
:10136000200002F097FD002240F20311200002F05D
:1013700091FDD020FFF7D4FA012240F203112000A2
:1013800002F088FD012240F20051200002F082FDAF
:10139000002240F20311200002F07CFD0520FFF73F
:1013A000BFFA012240F20311200002F073FD012276
:1013B00040F20051200002F06DFD002240F20311C6
:1013C000200002F067FD0920FFF7AAFA012240F28F
:1013D0000311200002F05EFD012240F200512000C6
:1013E00002F058FD002240F20311200002F052FDED
:1013F0000920FFF795FA012240F20311200002F0C4
:1014000049FD012240F20051200002F043FD00227C
:1014100040F20311200002F03DFD0820FFF780FAA2
:10142000012240F20311200002F034FD012240F2BB
:101430000051200002F02EFD002240F20311200096
:1014400002F028FD1420FFF76BFA012240F203118D
:10145000200002F01FFD012240F20051200002F0A6
:1014600019FD002240F20311200002F013FD282094
:10147000FFF756FA012240F20311200002F00AFDA4
:10148000012240F20051200002F004FD002240F24F
:101490000311200002F0FEFC3320FFF741FA012285
:1014A00040F20311200002F0F5FC012240F200514D
:1014B000200002F0EFFC002240F20311200002F0B5
:1014C000E9FC3F20FFF72CFA012240F20311200033
:1014D00002F0E0FC012240F20051200002F0DAFCB0
:1014E000002240F20311200002F0D4FC0720FFF795
:1014F00017FA012240F20311200002F0CBFC012276
:1015000040F20051200002F0C5FC002240F203111D
:10151000200002F0BFFC1320FFF702FA012240F284
:101520000311200002F0B6FC012240F2005120001D
:1015300002F0B0FC002240F20311200002F0AAFCED
:101540001420FFF7EDF9012240F20311200002F010
:10155000A1FC012240F20051200002F09BFC00227D
:1015600040F20311200002F095FC2820FFF7D8F983
:10157000012240F20311200002F08CFC012240F213
:101580000051200002F086FC002240F203112000EE
:1015900002F080FC3020FFF7C3F9012240F2031172
:1015A000200002F077FC002240F20051200002F0FF
:1015B00071FC002240F20311200002F06BFCE120DC
:1015C000FFF7AEF9012240F20311200002F062FCA5
:1015D000012240F20051200002F05CFC002240F2A7
:1015E0000311200002F056FCD020FFF799F90122E8
:1015F00040F20311200002F04DFC012240F20051A4
:10160000200002F047FC002240F20311200002F00B
:1016100041FC0520FFF784F9012240F2031120006C
:1016200002F038FC012240F20051200002F032FCAE
:10163000002240F20311200002F02CFC0920FFF7E9
:101640006FF9012240F20311200002F023FC012275
:1016500040F20051200002F01DFC002240F2031174
:10166000200002F017FC0920FFF75AF9012240F28E
:101670000311200002F00EFC012240F20051200074
:1016800002F008FC002240F20311200002F002FCEC
:101690000820FFF745F9012240F20311200002F073
:1016A000F9FB012240F20051200002F0F3FB00227E
:1016B00040F20311200002F0EDFB0320FFF730F9A8
:1016C000012240F20311200002F0E4FB012240F26B
:1016D0000051200002F0DEFB002240F20311200046
:1016E00002F0D8FB2420FFF71BF9012240F203117E
:1016F000200002F0CFFB012240F20051200002F056
:10170000C9FB002240F20311200002F0C3FB32208B
:10171000FFF706F9012240F20311200002F0BAFBA4
:10172000012240F20051200002F0B4FB002240F2FE
:101730000311200002F0AEFB3220FFF7F1F8012286
:1017400040F20311200002F0A5FB012240F20051FB
:10175000200002F09FFB002240F20311200002F063
:1017600099FB3B20FFF7DCF8012240F20311200037
:1017700002F090FB012240F20051200002F08AFBAF
:10178000002240F20311200002F084FB1420FFF736
:10179000C7F8012240F20311200002F07BFB012276
:1017A00040F20051200002F075FB002240F20311CC
:1017B000200002F06FFB1320FFF7B2F8012240F285
:1017C0000311200002F066FB012240F200512000CC
:1017D00002F060FB002240F20311200002F05AFBED
:1017E0002820FFF79DF8012240F20311200002F0AB
:1017F00051FB012240F20051200002F04BFB00227D
:1018000040F20311200002F045FB2F20FFF788F87B
:10181000012240F20311200002F03CFB002240F2C2
:101820000051200002F036FB002240F2031120009C
:1018300002F030FB2020FFF773F8012240F2031181
:10184000200002F027FB002240F20051200002F0AD
:1018500021FB002240F20311200002F01BFB292093
:10186000FFF75EF8012240F20311200002F012FBA4
:1018700010BDC046F0B5DE46454657464E46E0B57B
:1018800085B0029045F624601D0003930EAB0192D3
:101890001A880C00904640F200510022C2F200006B
:1018A00002F0F8FA45F62460002240F20311C2F279
:1018B000000002F0EFFA2B20FFF732F845F6246023
:1018C000012240F20311C2F2000002F0E3FA45F6F1
:1018D0002460012240F20051C2F2000002F0DAFA64
:1018E00045F62460002240F20311C2F2000002F02B
:1018F000D1FA2000FFF750F845F62460012240F2AB
:101900000311C2F2000002F0C5FA2B0045F6246074
:10191000013B012240F20051C2F200001C1902F00A
:10192000B9FA45F62460002240F20311C2F2000029
:1019300002F0B0FA2000FFF72FF845F624600122EC
:1019400040F20311C2F2000002F0A4FA45F624604E
:10195000002240F20051C2F2000002F09BFA45F66C
:101960002460002240F20311C2F2000002F092FA59
:101970002C20FEF7D5FF45F62460012240F203112A
:10198000C2F2000002F086FA0F9B1B785BB21F2B9D
:1019900000DC03E17F2B00D113E145F62460002237
:1019A00040F20051C2F2000002F074FA45F62460E1
:1019B000002240F20311C2F2000002F06BFA2A206A
:1019C000FEF7AEFF45F62460012240F20311C2F299
:1019D000000002F05FFA45F62460012240F2005157
:1019E000C2F2000002F056FA45F62460002240F2EE
:1019F0000311C2F2000002F04DFA029C2000FEF733
:101A0000CBFF45F62460012240F20311C2F2000030
:101A100002F040FA019A230094466344013B45F6E4
:101A20002460012240F20051C2F200001C00029327
:101A300002F030FA45F62460002240F20311C2F2AF
:101A4000000002F027FA2000FEF7A6FF45F624600A
:101A5000012240F20311C2F2000002F01BFA45F627
:101A60002460002240F20051C2F2000002F012FA9B
:101A700045F62460002240F20311C2F2000002F099
:101A800009FA2C20FEF74CFF45F62460012240F2B3
:101A90000311C2F2000002F0FDF90F9B019A1B78BE
:101AA0000027203BDBB29946039B5343DB089B4650
:101AB000002B6BD04A464623534344F20002C2F245
:101AC0000002924601269A445346DD5D4B465F2B49
:101AD0006BD043460824B8461F001AE002F0DAF93A
:101AE00045F62460002240F20311C2F2000002F029
:101AF000D1F93800FEF750FF45F62460013C012281
:101B000040F20311C2F20000E4B202F0C3F96D0822
:101B1000ACB345F62460012240F20051C2F200004D
:101B20002E42DBD102F0B6F945F62460002240F2E5
:101B30000311C2F2000002F0ADF90020FEF7F0FE42
:101B400045F62460012240F20311C2F2000002F0C7
:101B5000A1F945F62460012240F20051C2F20000D2
:101B600002F098F945F62460002240F20311C2F217
:101B7000000002F08FF90020FEF7D2FEBCE73B0028
:101B800047460137BFB298465F459DD30F9B01334F
:101B90000F931B785BB21F2B00DDFBE605B0F0BC9A
:101BA000BB46B246A946A046F0BD3B2F91D944F2B0
:101BB000000341F6042CC2F20003FB1863441D78B5
:101BC00087E745F62460019B00225C0040F200514B
:101BD000C2F20000019402F05DF945F62460002293
:101BE00040F20311C2F2000002F054F92A20FEF77D
:101BF00097FE45F62460012240F20311C2F2000074
:101C000002F048F945F62460012240F20051C2F288
:101C1000000002F03FF945F62460002240F2031173
:101C2000C2F2000002F036F9029D2800FEF7B4FE71
:101C300045F62460012240F20311C2F2000002F0D6
:101C400029F92B00A446013B6344E8E610B50020C7
:101C5000FEF7DEFE10BDC046F0B5D6464F464646FE
:101C60000C009246C0B586B00A2205A98146200024
:101C700098460E9E0F9F109DFEF706FE0A225046C4
:101C800003A9FEF701FE092C47D94B464FF6FF7911
:101C90006B4318009A4605AB01934B462A0000930C
:101CA00031003B004044092C33DC093431D2FFF7CA
:101CB000E1FD6C00641954444346E0184AF6BC2325
:101CC000C0F2000301934B462A00310000933B0011
:101CD000FFF7D0FD43466419E01803AB01934B4670
:101CE0002A00009331003B00FFF7C4FD43467F22EA
:101CF000981E04AB64191A70723A20185A70142E88
:101D00001CD0382E23D006B0E0BCBA46B146A84657
:101D1000F0BDFFF7AFFD6C00CDE74C4643464FF6F4
:101D2000FF796C43E01805AB01934B462A00009302
:101D300031003B00FFF79EFD6419BDE701934B4660
:101D40002A00009314213B00FFF794FDDBE74AF6DD
:101D5000C023C0F2000301934B462A0000933821B0
:101D60003B00FFF787FDCEE74BF2CC0145F6506014
:101D700010B5C0F20001C2F2000002F033FF4BF2D6
:101D80001C1145F67060C0F20001C2F2000002F0C2
:101D900029FF10BD30B5017991B945F6E642C2F28E
:101DA00000021388012B0CD940F60000982404256A
:101DB0000133C4F204009BB20551032B10D91180EA
:101DC00030BD40F60001982005240133C4F204011F
:101DD0009BB20C501380022BF2D104230B50013B19
:101DE0001380EDE703793BB945F6E842C2F2000201
:101DF0001388013B9BB213807047C0464AF6C42348
:101E00004AF6C4424AF6D820212110B5C0F2000398
:101E1000C0F20002C0F2000003F0E6FB4AF6C42361
:101E20004AF6B4424AF6D820272110B5C0F2000382
:101E3000C0F20002C0F2000003F0D6FB4AF6C42351
:101E40004AF6A4424AF6D8202D2110B5C0F200036C
:101E5000C0F20002C0F2000003F0C6FB45F6515389
:101E6000002245F6EC4145F6E06070B5C2F2000391
:101E70001A7082B03232C2F20001C2F2000000F0E9
:101E8000C7FF45F65552C2F200021378002BFCD072
:101E900045F6EC450023C2F2000513702B79742B34
:101EA00024D045F6EC444FF6FF76C2F200043C35F0
:101EB00002E00134AC4211D02378772BF9D1237999
:101EC0003D2BF6D1631D0193102220238021842015
:101ED00000960134FFF7CEFCAC42EDD145F65753E6
:101EE0000122C2F200031A7002B070BDEB7B3D2BE1
:101EF000D7D12E0000240F360BE04AF60030230025
:101F0000A621C0F20000013405F08AFF0136062C3C
:101F10000DD032780D2AF0D17F234AF6003033708D
:101F2000A6212A7E763BC0F2000005F079FF2B0047
:101F3000103301934FF6FF73102200935C2120238E
:101F40008420FFF797FCACE745F651530021C2F21D
:101F50000003197045F6EC43C2F200031A7A662AB0
:101F600005D0742A02D15A7A722A0FD070475A7A51
:101F7000612AFBD19A7A692AF8D1DB7A6C2BF5D1E8
:101F800045F65253C2F200031970EFE79A7A752AA8
:101F9000ECD1DB7A652BE9D145F65253743AC2F2A3
:101FA00000031A70E2E7C0464BF2BC1145F6B06080
:101FB00010B5C0F20001C2F2000000F0B5FFB0B9E8
:101FC0004BF2F01145F6E060C0F20001C2F20000F1
:101FD00000F0AAFF78B94BF2242145F61070C0F248
:101FE0000001C2F2000000F09FFF10B910BDFFF722
:101FF00005FFFFF723FFFFF711FFC04610B5037978
:10200000022B0BD0042B08D1010045F6E060012221
:102010000831C2F2000000F0FBFE10BD45F655533A
:102020000122C2F200031A70F7E7C0460379022BBF
:1020300005D145F656530122C2F200031A707047CB
:1020400070B503790400022B04D0042B0FD0012BB0
:1020500007D070BD45F654530122C2F200031A7036
:10206000F7E745F65352C2F200021370F1E745F666
:102070005055C2F200052B78632B0BD881685A2982
:1020800013D05A1CD2B22A7045F6EC42C2F20002BA
:10209000D154DEE745F6EC40002364220021C2F271
:1020A00000002B7005F087F9D3E745F6EC40642279
:1020B0000021C2F2000005F07EF900230122A16890
:1020C000E1E7C04645F6E06010B5C2F2000014003A
:1020D00000F09EFE45F65551C2F200010B78002B30
:1020E000FCD0002320000B7010BDC04645F65753AE
:1020F000C2F200031878704745F657530022C2F227
:1021000000031A707047C04600B583B05A226B4670
:1021100069461A70A52368464B700221C27081700F
:10212000037145F6B06005226946C2F2000000F076
:102130006FFE45F65452C2F200021378002BFCD019
:10214000002145F6515311700122C2F200031A70AA
:1021500045F65253C2F20003197003B000BDC046E9
:1021600000B583B05A226B4669461A70A5236846AB
:102170004B700121C2708170037145F6B060052279
:102180006946C2F2000000F043FE45F65452C2F226
:1021900000021378002BFCD00023137045F6515336
:1021A0000222C2F200031A7003B000BD00B583B072
:1021B0005A226B4669461A70A52368464B70032164
:1021C000C2708170037145F6B06005226946C2F2A3
:1021D000000000F01DFE45F65452C2F200021378D2
:1021E000002BFCD00023137045F651530322C2F29A
:1021F00000031A7003B000BD45F6EC4300B5C2F20F
:1022000000031A7883B05A2A01D003B000BD5A786F
:10221000A52AFAD145F651520021C2F200021170EE
:102220009A78DB781340FF2BEFD14AF64833C0F29F
:10223000000301934FF6FF73102200931420202314
:10224000A431FFF717FB4AF65C30F221C0F2000020
:1022500005F0E6FDD9E7C04610B545F6EC44C2F2FC
:10226000000423785A2B00D010BD6378A52BFBD136
:10227000A378022B23D0032B11D0012BF4D14AF6E3
:10228000A830E27840F21111C0F2000005F0C8FD5C
:1022900045F6E043E278C2F200035A70E4E74AF6FA
:1022A0005040E27840F21911C0F2000005F0B8FD8C
:1022B00045F6E043E278C2F200039A70D4E74AF6AA
:1022C000FC30E27840F21511C0F2000005F0A8FDE4
:1022D00045F6E043E278C2F200031A70C4E7C04654
:1022E00045F6515310B5C2F200031B78022B14D0EF
:1022F000032B2CD0012B1DD0FFF7AEFF45F650531A
:10230000002245F6EC40C2F200031A70002164324C
:10231000C2F2000005F04FF810BD45F6EC43C2F2E2
:1023200000031A78352AE7D15B78412BE4D1FFF717
:1023300095FDE1E745F6EC43C2F200031A78432A23
:10234000DAD15B786F2BD7D1FFF7FEFDD4E7FFF72B
:1023500053FFD1E7F8B545F6EC4545F6525645F63C
:10236000515740F2F414C2F20005C2F20006C2F264
:10237000000740F2E831012003F03CF92B78432BB1
:102380000BD0013CA4B28CB13378002BF1D03B7858
:10239000002BEED101203370F8BD6B786F2BF0D19C
:1023A000013CA4B2FFF7D0FD002CEDD10020F3E7F3
:1023B0000A00010045F6B06010B5C2F2000000F05E
:1023C00027FD45F65452C2F200021378002BFCD0D0
:1023D0000023137010BDC04610B58AB0242200211E
:1023E00001A804F0E8FF0323049304330593743336
:1023F0000693773B07934BF25823C0F200031C6807
:102400005968200001F038FC01A9200001F05AFAB7
:102410000E21200001F0DAFA0AB010BD00B50378F1
:1024200083B0012B01D003B000BD4BF2582345F619
:102430005851C0F200031B68C2F20001180001935A
:1024400001F004F945F67C52C2F200021378013320
:10245000DBB23B2B09D90023137045F67D53C2F242
:1024600000031A7801321A70DDE71370DBE7C0460B
:1024700010B5FFF73BFE38B145F67D54C2F20004BB
:102480002378142B10D810BD4AF6D84045F67D5459
:102490003F21C0F20000C2F2000405F0C1FCFEF7CB
:1024A00057F82378142BEED94AF62C504521C0F268
:1024B000000005F0B5FC00F0E5FB00F0E3FB0023B5
:1024C0002370FFF719FEDEE770B545F690644BF216
:1024D0006C1145F68C55C2F20004C2F200052000D2
:1024E000C0F2000102F07EFB2900200002F0E0FAB9
:1024F00045F60463AA68C2F2000320001A6002F0E5
:102500003FFA200002F036FA70BDC04670B503797C
:10251000012B03D0022B21D0C3B170BD45F6FE5371
:10252000C2F200031A78012A7ED0032AF5D145F6BB
:1025300084528168C2F20002116045F600620021F7
:10254000C2F20002116004221A70E6E745F6006349
:10255000C2F200031A6801321A60DEE745F6FE5344
:10256000C2F200031A78002A50D0022A00D190E06B
:10257000042AD2D145F6006245F60461C2F2000297
:10258000C2F2000114680A6881686243521845F675
:102590008051C2F200010A6045F68451C2F2000186
:1025A0000968521A3021B2FBF1F245F68851100049
:1025B000C2F200010A6040F2F2112E38FF38884260
:1025C00000D9C2E045F6086145F60A600322C2F26E
:1025D0000001C2F200001A700A7803785200013339
:1025E000D2B2DBB20A700370072B96D945F6FC53C2
:1025F000C2F200031C78651C1D7045F69853C2F2A8
:1026000000031A55002303700B7086E745F68051CE
:102610008068C2F20001086045F60061C2F2000164
:102620000A6001321A7078E745F6006445F60462E4
:10263000C2F20004C2F2000281681268206845F606
:102640008455424345F68850C2F20000521801609A
:1026500045F68051C2F200010E68C2F20005921BDD
:102660004DF68076CFF6FA76B4464AF6FF266244F7
:10267000C2F25026B24206D802221A7000232B6002
:102680000B60236049E700221A702A600A6002602A
:1026900043E745F6006145F60462C2F20001C2F26A
:1026A00000020C68126880686243121845F6885070
:1026B000C2F20000056845F68054521B4EF65045A4
:1026C000CFF6FC75561945F6BF55C2F20004AE426E
:1026D00022D946F25035CFF6FE75AC4644F6FF25BA
:1026E0006244AA4212D845F60962C2F20002157885
:1026F0000135157000221A7045F6FD530260226004
:102700000A60C2F2000301321A7006E7002222605A
:1027100002600A601A7000E70025032205601A7043
:1027200045F6985045F6FC530D60C2F200030021B7
:102730006132C2F200001D70256004F03CFE45F6D7
:102740000963C2F200031D70E7E618498C4640F2A7
:102750008E1162448A4226D8032245F6086145F666
:102760000A601A700122C2F200010B78C2F2000066
:102770005B0013430278DBB20132D2B20B700270FD
:10278000072A00D8C9E645F6FC52C2F200021478C6
:10279000651C157045F69852C2F2000213550023CD
:1027A00003700B70B9E600221A70B6E687FAFFFFD5
:1027B00045F6FD5370B5C2F200031A78012A00D025
:1027C00070BD002245F6985500241A70C2F200052B
:1027D0004AF6845023002A5DA921C0F2000001348A
:1027E00005F01EFB082CF3D1EAE7C0464BF2880344
:1027F00045F6246010B5C0F200035968C2F200002B
:1028000001F042FC10BDC0464BF2740145F6146065
:1028100010B5C0F20001C2F2000001F0F1FF45F670
:102820001460C2F2000002F043F800B910BD4AF68D
:10283000C4234AF65C624AF6E0501221C0F200035B
:10284000C0F20002C0F2000002F0CEFE30B54368D4
:1028500083B0042B01D003B030BD45F60B630122D9
:10286000C2F2000340F2E83164201A7002F0C2FEA6
:102870006B4645F62460DD1D2A0040F20B11C2F2C2
:10288000000001F0D9FA282410E040F2E831642079
:1028900002F0B0FE45F62460013C2A0040F20B1124
:1028A000C2F20000E4B201F0C7FA64B12B78002B49
:1028B000EBD045F62460002240F20C11C2F2000079
:1028C00001F0E8FAC7E74AF608602421C0F20000E8
:1028D00005F0A6FAFFF76AFCBDE7C0464BF294018B
:1028E00045F62C6010B5C0F20001C2F2000002F003
:1028F000DDFB4BF2B80145F62C60C0F20001C2F2DC
:10290000000002F08BFC00B910BD4AF670634AF675
:10291000A8624AF684601221C0F20003C0F20002ED
:10292000C0F2000002F060FE45F60C630122C2F224
:1029300000031A707047C04645F62C6010B5C2F20D
:10294000000082B002F010FB45F60C62C2F20002F9
:102950001378002BFCD0002313706B4645F62C60D7
:102960009C1D22000821C2F2000002F003FB208817
:1029700004F0CEFC46F2666246F26663C6F2666218
:10298000C4F20A0303F07AFE4FF600630022C4F299
:10299000AF0303F057FB02B010BDC04646F2280358
:1029A000C2F200031B6810B5B3FBF0F045F61063EC
:1029B000C2F200031860802301385B04984214D2ED
:1029C0004EF210024EF60051CEF200025060C020CE
:1029D000CEF200010B6A00061B021B0A03430B62C6
:1029E000002393600733136010BD4AF6B4634AF6C0
:1029F000E8624AF6BC603D21C0F20003C0F200026A
:102A0000C0F2000002F0F0FD45F68823C2F2000398
:102A10001900012038315A7832B1013AD2B25A70D5
:102A200012B99A7818705A7008338B42F3D17047F4
:102A300010B5FFF7E9FF10BD70B545F68824C2F266
:102A40000004250000263835237813B163689847C1
:102A500026700834AC42F7D170BDC04610B545F6BB
:102A60002464C2F2000405220221200001F01EFBB2
:102A700001220221200001F00DFA40F2E83140F27B
:102A8000E83002F0B7FD00220221200001F002FA36
:102A900040F2E831122002F0ADFD012202212000B7
:102AA00001F0F8F900220221200001F0FFFA0022D3
:102AB00040F20721200001F0EDF910BDF0B5C64647
:102AC00000B582B06B46DD1D01230827002698461D
:102AD00076006324F6B203E0013CE4B2002C42D05D
:102AE0000121012002F086FD45F624602A00022122
:102AF000C2F2000001F0A0F92B78002BECD00121EC
:102B00001C2002F077FD45F624602A000221C2F263
:102B1000000001F091F92B78012B02D143461E43AE
:102B2000F6B245F62460012240F20721C2F200000D
:102B300001F0B0F945F62460002240F20721C2F20C
:102B4000000001F0A7F945F624602A000221C2F234
:102B5000000001F071F92B78012BF4D0013FFFB296
:102B6000002FB5D13400200002B080BCB846F0BDC3
:102B700070B5052082B004F001FC0600FFF76EFF7F
:102B80006B466325DC1D03E0013DEDB2002D5ED0F8
:102B90000121012002F02EFD45F6246022000221D1
:102BA000C2F2000001F048F92378012BECD0C725D0
:102BB00003E0013DEDB2002D52D00121012002F0D1
:102BC00019FD45F6246022000221C2F2000001F046
:102BD00033F92378002BECD0C72503E0013DEDB29B
:102BE000002D46D00121012002F004FD45F62460AD
:102BF00022000221C2F2000001F01EF92378012B0D
:102C0000ECD0FFF75BFF3070FFF758FF7070FFF7F5
:102C100055FFB070FFF752FFF070FFF74FFF3178AC
:102C20007378B2785B189B18F2789B18FF221340D8
:102C3000834204D000233371300002B070BD012301
:102C4000337145F6E043C2F200031971F4E74AF626
:102C5000F8602121C0F2000005F0E2F83571EBE7E1
:102C60004AF64C702D21C0F2000005F0D9F83571FC
:102C7000E2E74AF6A0703921C0F2000005F0D0F872
:102C80003571D9E710B584B0FFF772FF03790400FE
:102C9000012B04D0200004F07BFB04B010BD0F33E7
:102CA0004278017802931033019318330093072080
:102CB000243BFEF7D1FFEDE710B582B0FFF796FD9C
:102CC00045F62460012240F20C11C2F2000001F02E
:102CD000E1F8FFF769F9FFF77FFBFFF7FFFDFEF76C
:102CE0000BF8FEF7B3FFFFF7EFFB4BF200034FF6D5
:102CF000FF74C0F20003019310222023142114203A
:102D00000094FEF7B7FD4BF20803C0F200030193F5
:102D100010222023382114200094FEF7ABFD4BF243
:102D20001003C0F200030193102220235C21142021
:102D30000094FEF79FFD4BF21803C0F200030193CD
:102D400010222023802114200094FEF793FD4BF2E3
:102D50002003C0F200031022A42114200193009448
:102D60002023FEF787FDFFF78DFFFFF78BFFEFF3C3
:102D70001081012383F3108845F69873C2F2000393
:102D80001A6832B940F60050C4F20400C2704032F2
:102D9000C2701A6801321A6081F31088FFF734FD9F
:102DA000FEF7E2FF0A20FFF7F9FD02B010BDC046B2
:102DB00010B5FFF781FF4BF234001B21C0F2000079
:102DC00005F02EF8FFF738FEFCE7C04600B583B0EB
:102DD00040B94CF2000390220121C4F27E039954C1
:102DE00003B000BD0228FBD14BF2880345F62460F6
:102DF000C0F200035B68C2F200001900019301F009
:102E000043F9EDE710B5FFF7D3FF002010BDC04632
:102E10007B2330B5046AA5782B40A37083789B0789
:102E20009B0FD21A02618022CB18C360A378134390
:102E3000A370032382781340022B03D00B78E37036
:102E4000002030BD4FF600620B881343E381F7E7A3
:102E5000F0B51F2501241540AC404EF20015C646C2
:102E600053092033CEF200059B0000B588465C5123
:102E7000BFF34F8FBFF36F8F130046F20004C033D0
:102E8000C4F200049B001D59124E35401D511B59C0
:102E90004EF20011FF240325CEF200018C462100E2
:102EA00040F200371540ED00A94093089B006344B1
:102EB000DE5992008E43414689010C40AC403443B8
:102EC000DC5145F69C73C2F20003D05080BCB8467A
:102ED000F0BDC046FFFFFEFFF0B5C64600B50500D9
:102EE000806A84B08C4690466C46D8B123000600B8
:102EF00086CE86C336681E60EB691B780360634626
:102F0000836043460371EB6AC3606B6A9847AB6AA0
:102F100023B107CC07C31A002368136004B080BC38
:102F2000B846F0BD2000E7E743F60002C0F20022F9
:102F30009446F8B54546DE4657464E460B78E0B512
:102F400063445B010362002303704A690D0042621F
:102F50008A69C161C262032201218362837804000D
:102F600093430B4383706B7823B983789343022296
:102F7000134383700B222000AA56A97AFFF768FF3B
:102F800005222000AA562979FFF762FF07222000B8
:102F9000AA56A979FFF75CFF09222000AA56297AD0
:102FA000FFF756FFEFF31086012080F31088802191
:102FB00046F6FC732F780906F940C4F204035A68F8
:102FC0008A435A605B6886F310880022236A297856
:102FD0009A701A715A729A72DA725A8340F2072200
:102FE000CA40104201D04022DA7406221A7768786B
:102FF000AA78EE78E9692D780DB9734D9D8212019A
:10300000F6003243032800D1D9E0451EA841000153
:10301000E230D2B21A7002229871087BFF2640007B
:10302000024020205A734A788D78D2016D012840E1
:1030300032400243002018720878851E8346012D15
:1030400000D8B4E003274D68D2B2DA71AA786E785E
:103050005A701A783E40BA4332431A70EA785937A8
:103060009A74DE792A78BE433A403243DA710023FB
:1030700005222361A361E3606361E369534F9A56BC
:1030800046F200031500C035C4F20003AD00EE584F
:10309000BC463E40EE50ED58BFF35F8F40F21F0A32
:1030A0000126554637001540AF404EF20015CEF2CE
:1030B0000005A94640F28015520992004A44575132
:1030C000176040F2C008E2696046D27A52B290447A
:1030D0004746BF00B846FF5807404046C750C05853
:1030E000BFF35F8F57461740B846370040468740CA
:1030F0004EF20010CEF200008146520992004A447E
:103100005751176040F2C008E269D27952B2904438
:10311000404680008046C058070060460740404651
:10312000C750C058BFF35F8F57461740B8463700A7
:10313000404687404EF20010CEF200008146520910
:1031400092004A445751176040F2C008E26967464E
:10315000527A52B29044404680008046C0580740A0
:103160004046C750C358BFF35F8F4EF20013574617
:10317000CEF2000317409C46BE40520992006244C2
:10318000565116600323584618406D331843236A7E
:1031900098704B890020238144F65513C5F24333C0
:1031A0006360F0BCBB46B246A946A046F8BD5E705F
:1031B000022801D110252A43D2B2DA7157E73D30F7
:1031C0000243B23025E7C04600F8FFFFFFFFFEFFD5
:1031D00070B5EFF30383103B5BB21A0046F20001B7
:1031E000C032C4F20001920050581D4C2040505093
:1031F000525845F69C729B00C2F200029858C3696F
:103200001B6913B1036913B170BD036983B97F23CF
:10321000026A91780B4004210B4393700023C36032
:10322000436A002BF0D080220021FFF755FEEBE728
:1032300003218278114002290AD0C168056A0C78FE
:10324000EC709207920F9B1A8A180361C260DAE74A
:103250004FF60065C1680C882C43056AEC81F0E7E5
:10326000FFFFFEFF10B582B0EFF30383103B5BB2AC
:103270001A0046F20001C032C4F200019200505818
:103280001F4C20405050525845F69C729B00C2F291
:1032900000029C580323A2781340022B0DD0236A0E
:1032A0005979A369C9B2019183B9636A1BB1042238
:1032B0002000FFF711FE02B010BD40F2FF11236A9B
:1032C0001B8A1940A3690191002BEED09207920F3F
:1032D000606901A904F066F8A37862699B079B0FF7
:1032E000D2186261A269D31AA361002BE3D1636A89
:1032F000002BE0D0012200212000FFF7EDFDDAE7EE
:10330000FFFFFEFF10B5EFF3038445F69C73103CFE
:1033100064B2C2F20003A200D0587B23026A917803
:103320000B409370436A1BB102220021FFF7D4FDCA
:10333000230046F20002C033C4F200029B009958F9
:103340000248014099509B5810BDC046FFFFFEFF48
:1033500070B5EFF3038445F69C73103C64B2C2F27F
:103360000003A200D058032382781340022B22D0FE
:10337000036A5979C9B238221D792A40ED0602D56F
:103380001D7FED0714D538261D79B5431D71436A9D
:103390000BB1FFF7A1FD230046F20002C033C4F2D7
:1033A00000029B0099580748014099509B5870BDF6
:1033B00040252A43E7E740F2FF11036A1A8A1140C9
:1033C000D9E7C046FFFFFEFF44F20002222300219E
:1033D00010B50124C4F20402D1542431535CA34338
:1033E0005354535CDB07DC0F002BFAD10F224368E8
:1033F0009A56002A18DB1F215309114001228A40E6
:103400004EF200112033CEF200019B005A50BFF360
:103410004F8FBFF36F8F0F2145F69C724368C2F246
:103420000002595689008C500D229A56002A19DB49
:103430001F215309114001228A404EF2001120330E
:10344000CEF200019B005A50BFF34F8FBFF36F8F36
:103450000D2145F69C7200244368C2F200025956C1
:1034600089008C5011229A56002A19DB1F2153091A
:10347000114001228A404EF200112033CEF20001A9
:103480009B005A50BFF34F8FBFF36F8F45F69C736D
:1034900000214268C2F20003527C52B29200D15025
:1034A00000230360002010BD44F20002072370B522
:1034B000C4F20402157C28091840840004190F2066
:1034C000640005406419E4B20C60957C2C091C4032
:1034D000A600A419054064006419E4B24C60157D8F
:1034E0002C091C40A600A419054064006419E4B22C
:1034F0008C60957D2C091C40A600A4190540640031
:103500006419E4B28C61157E2C091C40A600A41934
:10351000054064006419E4B2CC60947E25092B4018
:103520009D005B1904405B001B19DBB2013B0B6182
:10353000948BE4B223099D005B1920405B001B18AB
:103540002420DBB264334B61137CDB090B54937C86
:103550000130DB090B54137D0130DB090B54937DE3
:103560000430DB090B54137E0338DB090B54937EC4
:103570000130DB090B54937F2922DB0900208B5497
:1035800070BDC046436824221B7800200B7044F2B3
:103590000003C4F204039B5CDB07DB0F4B70704736
:1035A000C1604261036100207047C046F8B54368BE
:1035B00044F200041A782823C4F20404E2540600FA
:1035C0000F00C820012102F015F824220121A35C7C
:1035D0008B43A354A35CDB07DD0F002BFAD1736888
:1035E0001B78012B02D1BB886585A38544F20002BC
:1035F00000212423C4F20402D1542431535CDB099A
:10360000002BFBD10220535C0343535444F20002CD
:103610002421C4F20402535C9B07D80F002BFADB71
:103620002223D0544020535C0343535444F20002FD
:103630002421C4F20402535C5B06FCD5F8BDC046ED
:1036400010B54168FFF7B2FF002010BDF0B5454648
:10365000DE4657464E46E0B51125436884465D5721
:10366000884683B06C09002D00DAACE04EF20013FE
:103670001F22CEF20003A4001B592A40D34001228E
:103680001100194089461A422BD144F2000222212E
:103690000220C4F20402535C034353542030203907
:1036A000135C1942FCD02B0046F20002C033C4F276
:1036B00000029B0099585648014099509B58BFF30F
:1036C0005F8F4EF200121F23CEF2000291461D4082
:1036D0001E3BAB4040F280124C44A350236040F2AA
:1036E000000944F2000340F2000AC4F204036246F7
:1036F0005146117298781979C0B2CAB261460192E6
:103700009F791E7A9D7A1C7BDA89097AFFB2F6B21C
:10371000EDB2E4B292B20029E9D1D2B292460209E6
:10372000934692005A44520093460F22414610405D
:103730005844C0B208600199080981008B4601997C
:1037400058444000114041184046C9B24160B90692
:10375000890F8800091849001740CF194146FFB268
:103760008F60310988000918490016408E194146BA
:10377000F6B28E61290988000918490015404D19D3
:103780004146EDB2CD602109880009184900144076
:103790000C194146E4B2013C0C615146090988000C
:1037A00009185046490002408A184146D2B2643294
:1037B0004A614A464AB1002003B0F0BCBB46B2465B
:1037C000A946A046F0BDA4005FE7222102205A5C72
:1037D00082435A5444F200022030C4F204022039D9
:1037E000135C1942FCD1634611221F215B689A5673
:1037F0001140530901228A404EF200112033CEF2CB
:1038000000019B005A50BFF34F8FBFF36F8FD2E779
:10381000FFFFFEFFF0B5C64644F20005242400B5C4
:10382000C4F204052C5DE406E40F84421DD000269A
:103830002E242E552E36AC5D002CFCD1012640F2F4
:10384000100C242706403601B0466646EC5DB443B2
:1038500046463443EC5544F200052426C4F20405E0
:10386000AC5DE406E40F8442FAD1012811D03F2177
:1038700092010B4044F200011A432E232E20D2B2B3
:10388000C4F20401CA540B5C9A42FCD180BCB84615
:10389000F0BD44F200042426C4F20404A55DAD0684
:1038A000ED0F8D42E3D02027A55D0840BD434001C8
:1038B00028432425A055605D8006C00F8142FAD1BF
:1038C000D5E7C046F8B544F2000324240125C4F22C
:1038D00004031A5DAA431A551A5DD207FCD40A22C2
:1038E0000E78B6FBF2F7BD00ED196D00751B0E7971
:1038F0003C01B6FBF2F72C43BD00ED19E4B26D00BC
:103900009C70751B3C012C430D7AE4B2B5FBF2F7B9
:103910001C71BC00E41964002D1B3E012E433F25A1
:1039200035400E7E9D71B6FBF2F7BD00ED196D00BE
:10393000751B0E7B3C01B6FBF2F72C43BD00ED1965
:10394000E4B26D001C72751B3C012C43E4B29C7206
:103950000C6949690134E4B2B4FBF2F76439C9B2C5
:10396000B1FBF2F2BE00F61976003D01A41B2C4318
:10397000E4B295001C731401AA185200891A21435D
:10398000C9B2D98143681A786AB144F2000224218D
:103990000120C4F20402535C03435354535CDB071D
:1039A000FCD50020F8BD986843688278417800789B
:1039B000FFF730FFE9E7C046080010B54B688A788A
:1039C00000784978FFF726FF002010BD44F200027E
:1039D00070B522250F24C4F20402565D0B01344059
:1039E00023432224DBB25355135D1B098B42FBD1C9
:1039F0000421135D0B43135544F200022224C4F248
:103A00000402135D1942FCD0436846F20001DB7BDF
:103A1000C4F200015BB21A00C032920050580C4C44
:103A2000204050505258BFF35F8F1F210122194090
:103A30008A404EF20011CEF200018C4640F2801115
:103A40005B099B0063445A501A60002070BDC04659
:103A5000FFFFFEFF70B50D24436882B01C57002C99
:103A600012DB1F22630914401E3AA2404EF20014DA
:103A70002033CEF200049B001A51BFF34F8FBFF3E7
:103A80006F8F0D2443681C572423CA5C002A00D181
:103A9000EBE00D781A3BB5FBF3F083001B185B00DD
:103AA0000201EB1A1343802252421A436B46D2B2F0
:103AB00007331A7044F200001A78C4F20400D2B23C
:103AC000027425228A5C002A00D1CCE00A200E79FB
:103AD000B6FBF0F5A800401940002A01301A104347
:103AE000802252420243D2B21A7044F200001A7885
:103AF000C4F20400D2B2827426228A5C002A00D169
:103B0000AFE00A200E7AB6FBF0F5A800401940009D
:103B10002A01301A1043802252420243D2B21A7054
:103B200044F200001A78C4F20400D2B202752A22CC
:103B30008A5C002A00D192E08022886952420243C6
:103B4000D2B21A7044F200001A78C4F20400D2B261
:103B5000827527228A5C002A00D17DE00A200E7B34
:103B6000B6FBF0F5A800401940002A01301A1043B6
:103B7000802252420243D2B21A7044F200001A78F4
:103B8000C4F20400D2B2027628228A5C002A61D0F4
:103B90000A200A690132D2B2B2FBF0F5A80040193E
:103BA0004000121A2E011643802252423243D2B2F2
:103BB0001A7044F200001A78C4F20400D2B282767D
:103BC0002922885C002843D00A254A69643AD2B287
:103BD000B2FBF5F6B500AD196D003101521B0A4379
:103BE000D2B21A7044F200021B78C4F2040293832A
:103BF0007F23917FC0010B40222103430120937753
:103C0000535C0343535421302139135C1942FCD0D7
:103C1000230046F20002C033C4F200029B00985811
:103C2000144D284098509B58BFF35F8F1F232340AB
:103C300099404EF20013CEF200039C4640F28013EE
:103C40006409A4006444E1502160002002B070BD0A
:103C50001870C7E71A70ACE701221A708DE71A7066
:103C600070E71A705CE71A703FE76B4607331A700B
:103C700020E7C046FFFFFEFFF0B5C6464B6900B522
:103C8000C3608B69416043610023036103720D00CF
:103C90000400FFF78BFC0F22AA56002A20DB4EF20D
:103CA0000013CEF200039C4640F2003891088900D0
:103CB000614440F2FF0C434603206646CF58AB7B7D
:103CC0001040C0009B013340864083404046B743CC
:103CD0003B430B5045F69C739200C2F20003D45054
:103CE0000D22AA56002A20DB4EF20013CEF200036A
:103CF0009C4640F2003891088900614440F2FF0C74
:103D0000434603206646CF582B7B1040C0009B01E2
:103D10003340864083404046B7433B430B5045F613
:103D20009C739200C2F20003D4501122AA56002ABA
:103D30001CDB4EF200130320CEF200039C462B7CCA
:103D4000FF2540F200361040C0009B012B4085400B
:103D500083409108890061448F599200AF433B43EF
:103D60008B5145F69C73C2F20003D45045F2434395
:103D7000C0F252030020236080BCB846F0BDC046AC
:103D8000F0B5C64600B582B0EFF3038445F69C73E8
:103D9000103C64B2C2F20003A200D558E968C1B178
:103DA0006B6828695B7BE8465BB21B1B5A1E93411C
:103DB000DBB29C46E8B14246070048CF48C26346A2
:103DC00003706B69436088472B6913B1404606C88E
:103DD00006C3230046F20002C033C4F200029B0077
:103DE00099580548014099509B5802B080BCB8468C
:103DF000F0BD4046E3E7C046FFFFFEFFEFF303835D
:103E000045F69C72103B5BB29900C2F200028A58E0
:103E10000121117246F20002C033C4F200029B007D
:103E200099580248014099509B587047FFFFFEFF88
:103E30000023036000207047FF2010B540F6000407
:103E40000B0A084019010918C4F2040489000B592F
:103E500000209B07DB0F137010BDC0460023C4F287
:103E600004039C46090A490161444B680020138001
:103E70007047C0460020C4F2040084461800090AB6
:103E800090430004134049010343614400208B60C8
:103E90007047C046FF2001230840834052B91B04ED
:103EA0000022C4F204029446090A49016144002038
:103EB0008B6070474FF6FF721340F1E70020C4F2A9
:103EC000040084461800090A490110B561440C68D1
:103ED00010402043934398430860002010BDC04623
:103EE0000023C4F204039C46090A490161444B685B
:103EF00000201B0C138070470020C4F2040084468D
:103F00000B0A5B0163445868FF231940FE3B8B405A
:103F1000000C99B203405B1A59424B4100201370C8
:103F20007047C0460020C4F2040084461800090A05
:103F30009043000413404901034361440020CB60D7
:103F40007047C0460B0A10B55B01012A10D0002251
:103F5000C4F204029446FF208022014052028A40AB
:103F60006344DC682243120C12040020DA6010BDA6
:103F70000020C4F204008446FF2001408A40110062
:103F80004FF6FF726344DC68114021430A40ECE7BE
:103F9000F0B5DE4657464E464546E0B583B0EFF3F2
:103FA0001082012383F3108845F69873C2F2000350
:103FB00001931B6833B940F60051C4F20401CB7081
:103FC0004033CB7001990B6801330B6082F310888A
:103FD00003889A46BBB3802340F600055B029946EE
:103FE000284B002240F2FF089C464168C4F20405B9
:103FF0000AE043461E4023019B1901329B0092B206
:104000005851083192451ED04B468E880868340AB4
:104010001842EED043461E4023019C19A700644677
:1040200000977F599B1927403C00009F01327C512B
:10403000674607403C00009F9B0092B27C510831CC
:1040400058519245E0D1EFF31082012383F3108899
:10405000019B1B681BB101990B68013B0B60019B25
:104060001B6833B940F60051C4F20401CB708033B1
:10407000CB7082F3108803B0F0BCBB46B246A946B1
:10408000A046F0BDFFFFFEFF45F2542310B5C5F278
:104090004F0303600800FFF77BFF002010BDC04600
:1040A00010B50800FFF774FF002010BDF0B5EFF366
:1040B0001084012383F3108845F69873C2F200033D
:1040C000186830B940F60055C4F20405E870403075
:1040D000E87018680130186084F31088D00321D488
:1040E000FF24080A0C40010140F600000919C4F23F
:1040F000040089000A50EFF31082012181F3108837
:10410000196811B11968013919601B6833B940F693
:104110000051C4F20401CB708033CB7082F310885D
:104120000020F0BDFF2440F60005080A0C40010104
:104130000819C4F2040580004759034E3740164061
:1041400047514651D0E7C046FFFFFEFFF0B50400DF
:10415000806B83B06D4688B12B000200C0CAC0C31B
:10416000E36B01710360636B9847A36B0BB106CDE2
:1041700006C32B230022E25403B0F0BD2800EFE772
:1041800040F21F0CF0B557464E464546DE466346A4
:10419000E0B502690468137040331370656A83B038
:1041A0008033137001902E79FF3B1E43F6B21674D4
:1041B000EE784BF6C0503343DBB253747023AE78C5
:1041C000CFF6F070360133400826334393702B78D6
:1041D0008046013B5E4273416D7804336D002B4392
:1041E000DBB2D370636840F2003743445C42634102
:1041F000DB017733537100239371B333D3714EF2E4
:1042000000131122CEF2000398468A56FF24960826
:10421000B6004644F3592500994603231340DB00BA
:10422000984640468540A8464B7B4D469B0123401F
:104230008340404645F69C78C2F2000885434046DC
:104240002B43019DF351930016001D5046F20003CD
:10425000C036C4F20003B600F058624D2840F0505A
:10426000F658BFF35F8F664601201640B040060047
:104270004EF20010CEF20000814640F28015520945
:1042800092004A44565116600F228A569608B6008C
:10429000B14448460326C05916408346F000824682
:1042A0004E7B5546B601264086402000A8408246F7
:1042B00058465546A84306434846C6514046019DC8
:1042C000960035501600C036B600F058454D2840CF
:1042D000F050F658BFF35F8F664601201640B0409D
:1042E00006004EF20010CEF20000814640F280152A
:1042F000520992004A445651166010228A56960876
:10430000B600B14448460326C05916408346F00023
:1043100082464E7B5546B601264086402000A84086
:10432000824658465546A84306434846C65140462D
:10433000019D960035501600C036B600F058294D44
:104340002840F050F658BFF35F8F664601201640B4
:10435000B04006004EF20010CEF20000814640F25E
:104360008015520992004A44565116600E228A5610
:10437000497B9608B6004E44F059890181460320D6
:104380001040C50021404846AC40A940A04301432D
:104390004046F151019E91000E501100C03189003C
:1043A000CC58104D2C40CC50CB58BFF35F8F634698
:1043B0000121134099400B004EF20011CEF2000192
:1043C0008C4640F2801552099200624453511360AA
:1043D0009F2233691A7003B0F0BCBB46B246A946AF
:1043E000A046F0BDFFFFFEFF10B582B0EFF30383E0
:1043F00046F20002103B5BB2C033C4F200029B00E5
:1044000099584748014099509B58EFF3038345F66C
:104410009C72103B5BB2C2F200029B009B582D22A3
:104420009A5CE2B99A69012A24D940201A69117963
:1044300001431171D969012907D110201179014374
:10444000082011711179014311716946D27CD2B2F1
:10445000CA71CA792D220121995402B010BDDA69BE
:10446000002AFAD0032A07D0022A48D0012A1AD0FB
:10447000196906E01A69DDE7402019690A790243E3
:104480000A71CA7C186A59690A541A6A01321A6296
:10449000DA69013ADA61002ADFD140211A69137919
:1044A0008B431371D9E72A21595C91B30F241F2044
:1044B00019680C5720406109140084404EF2001026
:1044C0002031CEF2000089000C50BFF34F8FBFF3B4
:1044D0006F8F802019694042CC7920431024C87125
:1044E00008792043082408710879A0430871042042
:1044F00048704879904348712C201A54C1E7102025
:1045000019690A79024308200A710A7902430A717B
:10451000B7E7082019694A7A82434A724870B0E7BF
:10452000FFFFFEFF30B5EFF3038346F20002103BBE
:104530005BB2C033C4F200029B0099583648014078
:1045400099509B58EFF3038345F69C72103B5BB286
:104550009B00C2F2000299582723CB5C002B34D178
:104560002923CB5C83BBCB69002B3FD108697F2318
:10457000C2791340C371C02201E0013A1AB1C37974
:10458000DB09002BF9D10B681021595646F20002C5
:104590000B00C033C4F200029B009C581E4D2C40FF
:1045A0009C509B5800290BDB1F224B0911401E3ADF
:1045B0008A404EF200116033CEF200019B005A5047
:1045C0004022C3791343C37130BD26228A5C032A7B
:1045D00018D028228A5C24200C69085C0132A0745F
:1045E00028200A542722013B8B54EDE70A6A4C69C4
:1045F0000869A45C013B013284740A62CB61002B20
:10460000E2D1B4E728228A5C022AE4D13020085C97
:104610000028D9D0DFE7C046FFFFFEFF10B5EFF35B
:10462000038345F69C72103B5BB2C2F200029B0012
:104630009B5829229A5C1AB127229A5C012A49D0F8
:10464000DA69DAB119694022CB799343CB71C0237F
:1046500001E0013B13B1CA795206FAD4EFF30383A8
:1046600046F20002103B5BB2C033C4F200029B0072
:1046700099581B48014099509B5810BD2A229A5CBA
:104680000AB30F201F211A68105601404209012069
:1046900004008C404EF200112032CEF20001920054
:1046A0005450BFF34F8FBFF36F8F8022196952426E
:1046B000CC792243CA7104224A704A7982434A71F2
:1046C0002C229854BFE7082219694B7A93434B7206
:1046D0004A70B8E72F329A5C002AB1D1B2E7C046DF
:1046E000FFFFFEFF70B5EFF3038345F69C72E021F8
:1046F000103B5BB2C2F200029B009C5823695A7ABD
:104700005972DD39D0B21140D2062DD55A785206F1
:1047100048D400252B2201212000A1542168DD71FD
:10472000FFF72EFD2623E561E25C0233E254A36924
:10473000226923622C23E554023BE554893301218D
:104740002000D371FFF702FDEFF3038346F200026E
:10475000103B5BB2C033C4F200029B00995827485B
:10476000014099509B5870BD0029D2D102070DD548
:104770002B22A25C8ABB2922A15C4A425141B3226E
:104780000231DA712000FFF7E1FCDDE72C22A25CA8
:10479000002AD9D04207D7D52B22A25C0121002ABA
:1047A000F0D1E8E70029B4D15A785206D10F002A97
:1047B000DCDA2B22A15408215A7A8A435A722268E1
:1047C0005970526A1278013A51424A41012102322B
:1047D000DA705A790A435A71B6E700222621E2615B
:1047E000605C02316054A16921622C21625402395B
:1047F0006254B332DA712939C4E7C046FFFFFEFFC5
:10480000F0B54646D6464F46022440F2003AC0B5BF
:104810000C5746F20005A3009C465346C4F200051F
:1048200004716544EB5852469846002346F200074F
:104830008E68AB508660CE68C4F20007C6600E7802
:104840004671BB550B79CA781B0113434A79DBB219
:10485000D2011343DBB2BB5552464346AB50002C4A
:104860001ADB4EF20013CEF2000398460323A5088C
:104870001C404B78FF21E4009B010B40A140A3406A
:10488000AD004544AE588E433343AB5045F69C7360
:104890006246C2F20003D05044F25533C0F24903DD
:1048A00003600020E0BCBA46B146A846F0BDC04651
:1048B000042310B5C35646F200011A00C032C4F2F8
:1048C0000001920050580C4C204050505258BFF3F9
:1048D0005F8F1F21012219408A404EF20011CEF253
:1048E00000018C4640F280115B099B0063445A50E2
:1048F0001A60002010BDC046FFFFFEFF30B583B038
:10490000EFF3038445F69C73103C64B2C2F20003DB
:10491000A200D15846F200024879C4F20002135CAA
:104920009B079B0F032B0FD0C034A400A358104D3E
:104930002B40A350A3588B6823B1CA680190009202
:104940006846984703B030BD8B6823B1CA680190B0
:1049500000926846984746F20003C034A400C4F2AF
:104960000003E25802490A40E250E358EAE7C04631
:10497000FFFFFEFF8368C26800205A607047C04690
:104980008021436830B5DA690906D36854689568B0
:104990000C430D431943836800205D6199611169DF
:1049A00052691C6159629A6230BDC046F0B5C64674
:1049B00000B50500806984B08C46904601AC98B182
:1049C0002300060086CE86C3634603714346836098
:1049D000EB6903606B699847AB690BB107CC07C300
:1049E00004B080BCB846F0BD2000EDE7F8B5DE4667
:1049F00057464E4645460100E0B5EFF30383103BB2
:104A00005BB21C0046F20005C034C4F20005A400ED
:104A10006259264840F2003C0240625146F20002D0
:104A2000C4F200029046834698008044424666469F
:104A3000925945F69C72C2F2000280580A008668BC
:104A400012329200B2185268914642681278012AD6
:104A50000CD0436923B101314A46C9B2FFF7A6FF22
:104A6000F0BCBB46B246A946A046F8BD802740F23E
:104A7000000A3F0637617761B76157467762B762D0
:104A80005F46665937406751444665466459BFF3EF
:104A90005F8F1F255C092B409A4023004EF20015C2
:104AA0006033CEF200059B005A51D2E7FFFFFEFFB4
:104AB000826830B5536E072001338B60D36A4EF2A3
:104AC0000002C4F20102156A46F22802C2F2000294
:104AD00012682C0E0440A2402840C2405B015B0FCC
:104AE0005B00DBB2DA40012300204A600B7030BD6E
:104AF00070B5554255418C6E013425B9A24202D29F
:104B0000013A1A6070BD049D496BED070CD5007821
:104B1000C902C90E03280CD901200909884382B1B2
:104B200080B903225A60EDE70078C906C90E032850
:104B3000F2D80C200140043948424141C8B2002A51
:104B4000EED110B902225A60DCE7002CFAD0E8E777
:104B5000F0B5CE46474680B500283DDB40F2FF0960
:104B60004EF2001403254E46CEF20004A44640F255
:104B700000370540ED00AE4083089B006344DC59DC
:104B80008901B44326004C460C40AC403443DC5110
:104B900045F69C738100C2F20003CA50030046F23E
:104BA0000002C033C4F200029B0099580C4C214013
:104BB00099509B58BFF35F8F1F22012302409340FF
:104BC0004EF20012CEF20002944640F280124009EA
:104BD0008000604483500360C0BCB946B046F0BD5D
:104BE000FFFFFEFFF0B54546DE4657464E46012222
:104BF000E0B50D000B7C11009940040085B0C16048
:104C00004560002B00D102E1027440F28072C0F2D4
:104C100040029446002063441B02A3606B696361F9
:104C2000AB69A061E361EB699A46EFF3108C012355
:104C300083F310882A7C46F6FC7153425A41C4F231
:104C40000401CF685301413B3B40CB60CB688CF300
:104C500010884AF20053A1682E780B60C862C863BE
:104C600088642A7A6B68520812065F1E032E00D1F0
:104C7000CFE0CA62802212060A614A618A61524606
:104C8000926948628862CA615246D2690A62524693
:104C90008F664F66D76A02AA904601225242914619
:104CA0000292424650603200002E00D0EDE0380003
:104CB00040F2030C5B084B44029301324B658B6559
:104CC000002800D070E053461B78002B00D079E01C
:104CD000287853469B782BB35346DB7898469B0144
:104CE000994643464E461B0133439B46022800D15A
:104CF000C5E0032800D1D3E04646731E9E417642AC
:104D0000B04640F2030943464E461E40B04640F2CC
:104D10000609C84446465B4633431B041F438023B1
:104D20005B041F4340F28808002346468B638B5187
:104D3000564640F221082033F35C46465B03994611
:104D400053469E5D4B46760733431F43AA23DB033E
:104D50000B64012832D0E3681220CB6063464F63B6
:104D60000B630A63697C22002856FFF7F1FE524666
:104D70002223D15C0233D0562200FFF7E9FE5246CF
:104D80002323D15C0233D0562200FFF7E1FE45F227
:104D900054030020C0F24703236005B0F0BCBB46BB
:104DA000B246A946A046F0BD002388208B630B5075
:104DB000AA232878DB030B640128CCD10023CB6421
:104DC0000B65C8E753465B78287898469B0199465F
:104DD00043464E461B0133439B46022852D00328CC
:104DE0005BD04646731E9E417642B04640F20309B0
:104DF00043464E461E40B04640F20609C844464669
:104E00005B4633431F4340F200131F4361E70374C3
:104E1000FBE680235B021A4380231B06CA620B61F8
:104E20004B618B6153469B6948628862CB615346F4
:104E3000DB690B6253468F664F66DF6A02AB9846AA
:104E400001235B420293434658600023EA6860688E
:104E500000934346FFF74CFE40F2030C4246664681
:104E600040F201085068A16802040006024316439C
:104E70005046B4464646029BC06A32431EE740F2A3
:104E8000090847E740F20908B9E7012EDDD13800EB
:104E9000012240F2030C4B4610E740F20308AEE754
:104EA00040F2030836E7C046F0B5D6464F464646C0
:104EB000C0B5EFF30383103B5BB21A0046F2000665
:104EC000C032C4F2000692009159204840F2003AE4
:104ED0000140915146F200018146C4F20001980060
:104EE00045185146695845F69C71C2F20001405878
:104EF0004168097801290AD043691BB100220021C9
:104F0000FFF754FDE0BCBA46B146A846F0BD40F2FA
:104F100000088468C768A7604746A764E7642765F8
:104F20004F469459274097515246AA58BFF35F8F76
:104F30001F245A092340994013004EF20014603395
:104F4000CEF200049B001951D6E7C046FFFFFEFFDA
:104F500010B50020FFF74AFD10BDC04610B5012076
:104F6000FFF744FD10BDC0460368828A00201A8006
:104F70007047C046036810314900CB5A00201380A7
:104F80007047C04670B5C56904000E0088B0A5B171
:104F900020222900684602F005FA2022310028006C
:104FA00002F000FA2800A3699847E06918B12022AE
:104FB000694602F0F7F908B070BD0D00F2E7C0468F
:104FC00030B5010089B0EFF3038345F69C72103BC6
:104FD0005BB2C2F200029B009858EFF3038346F2E3
:104FE0000002103B5BB2C033C4F200029B009C582D
:104FF0000A4D2C409C509B586B466A4699704368FA
:105000001B88138000231372036A0193836913B111
:105010006946FFF7B7FF09B030BDC046FFFFFEFF8E
:10502000F0B5C64690464EF20012FF240325CEF29C
:1050300000029446220040F200370540ED0089014D
:10504000AA400C40AC4083089B006344DE5900B585
:1050500096433443DC5145F69C7342468100C2F2CC
:1050600000035A50030046F20002C033C4F20002AB
:105070009B0099580C4C214099509B58BFF35F8F6F
:105080001F220123024093404EF20012CEF2000292
:10509000944640F2801240098000604483500360CF
:1050A00080BCB846F0BDC046FFFFFEFFF0B54E46DF
:1050B0004546DE4657464CF20002CB68E0B54E69E5
:1050C00083610B69C4F20502036200239446C36145
:1050D0000B8841605B02634403608B784A790C0063
:1050E0005B0311020B433179050083B0890700D5BA
:1050F0007CE040210B43F178002900D16BE040F2C5
:10510000802003439BB240F2000CAB82022A00D104
:1051100070E0727820795201C00310433778019013
:10512000EFF31089012282F3108846F6FC72C4F274
:105130000402D06840F2100A804620888346504618
:105140005946401A0100012088400100404688432A
:10515000D060D26889F3108847F6FF512A680B4067
:105160001380634613826B469888D0811773337916
:10517000990747D48A21062053542056002803DB80
:105180002A00217AFFF74CFF07202056002803DB76
:105190002A00617AFFF744FF06203056002803DB1F
:1051A0002A00317AFFF73CFF07203056002803DB46
:1051B0002A00717AFFF734FF00232B6144F2434346
:1051C0000020C5F24123AB6003B0F0BCBB46B24641
:1051D000A946A046F0BD002A00D093E748F200029D
:1051E00013439BB240F2000CAB8292E740F2404185
:1051F0000B4380E74BF234428900C0F20002525A5E
:10520000944686E703210B438731535401208939A3
:1052100000F0F0F92A683379ACE7C046F0B54546AE
:1052200057464E46DE46E0B505000F686A6838000E
:10523000526983B001924A688C689046864BA446B6
:1052400018401A4023402C6886B2A68096B2A682E7
:105250009EB22681120C1B0C060CE680E282638152
:1052600043463B439846C02342469B051A4200D022
:105270008CE0CB68002B00D1E0E01A89924616053D
:1052800045D540F2900C6646A2535E8940F29C0CD4
:10529000B04666464246A2539A8940F29E0C90461A
:1052A00062464646A6521A6840F29408944692B264
:1052B000914642464E46A65262461201120D904653
:1052C00040F2960946464A46A6526246120F944656
:1052D00040F2920866464246A6545A6840F2980840
:1052E000944692B2914642464E46A65262461201FA
:1052F000120D904640F29A0946464A46A652624628
:10530000120F944640F2930866464246A65452460F
:10531000960525D490235246E2520A8A103BE25267
:10532000019BDB7873B11F2326889E43002800D1A0
:1053300089E000F0E1FA1F36301A80B22080AB8A93
:105340001843A88244F243430020C5F24123EB6096
:105350002F6103B0F0BCBB46B246A946A046F0BDE3
:105360009A7C40F2A60894466646DA7C40F2A80C85
:1053700016434246A654DA89904662464646A652ED
:105380001B8A9C46AA236246E252C3E74EF2000300
:105390000722C4F201031B6A46F2280B9A461B0E31
:1053A00013409946C2F2000B5B464E461B68B34061
:1053B00056463240D34040F2E832B3FBF2F341F2BA
:1053C0008832534344F24022C0F20F02B3FBF2F2A0
:1053D0000132072A35D380235B05994643464E4662
:1053E00033409A4646464B461E420CD040F2DE0AF7
:1053F0005646D3B2A35566464B4633405E1EB34174
:105400000133FF339A4680239B05994643464E4617
:1054100033420CD040F2DF084346D2B2E254634636
:10542000334212D1534640F2002213439A46534668
:105430009BB26382CB68002B00D01EE740F2000ACB
:1054400068E70722C7E7202075E7534640F20222AB
:1054500013439A46EBE7C046FFFFFFCF10B500208D
:10546000FFF7AEFD10BDC0464EF20003262245F602
:10547000A441C4F20103985C1B6A8000C2F20001DF
:1054800041585B015B0F46F22802D940C2F200028C
:10549000116070474EF2000340F2FE324B49C4F2F5
:1054A000010370B599524CF20002002043F6C87116
:1054B000C4F27E02505445F6A44446F60042C2F2BD
:1054C0000004C0F2DC22226041F20022C0F27A0223
:1054D000626048F2000242F20041A260226126228C
:1054E000C0F2F401E160995C1A6A890061585201C6
:1054F000520F46F22805D14040F21342C2F2000595
:10550000296098540921A222995440F28042995C62
:10551000002953D04EF20003002240F28141C4F230
:1055200001035A5401395A54A0329A5CCAB1362246
:105530009A5C1AB93C215A5CD207FCD54EF20002A3
:10554000A021C4F20102535CDB06D80F002BFADB6A
:1055500050544EF20002A021C4F20102535CDB065B
:10556000FCD44EF2000200213623C4F20102D154D1
:105570003C31535CDB07FCD501213123D1544FF67C
:10558000C473C4F27E03197040F20013002013624A
:10559000DA3BD054D05C136A800020585B015B0F6B
:1055A000D84040F2FE3328600948D0524CF2000344
:1055B00043F6C872C4F27E03995470BD013140F2C3
:1055C000C440995400F016F8A4E7C04603A5FFFFB5
:1055D00000A5FFFF44F2000328220021C4F20403C7
:1055E000995470477047C04600BEFEE70138002856
:1055F000FCD1704746F228024CF600234143C2F228
:10560000000270B51468C3F69A330D00B3FBF4F4CE
:10561000080040F2E8320023002100F08BF931B994
:10562000B0FBF4F0800808B1FFF7E0FF70BDA00008
:10563000B5FBF0F040F2E8320023002100F07AF9E7
:105640000029F0D001204042FFF7D0FFEEE7C0462E
:10565000F8B546F2000340F2401245F658750024B2
:105660000127C4F200039E5AC2F20005B6B233000D
:10567000E340E0B21F4202D02B6803B198470134E7
:105680000435102CF3D146F2000340F23012C4F27C
:1056900000039E52F8BDC04646F200000023C4F24B
:1056A00000004BF2B432C0F200029A1811781A00CE
:1056B000C032920001331150202BF2D17047C04606
:1056C00070B5EFF31081012383F3108846F21C03B9
:1056D0004000C2F200031A5A1AB11A5A013A92B2A1
:1056E0001A521B5A83B94EF2000240F2FE354BF2B9
:1056F0004044C4F20102565B054BC0F20004205A3C
:10570000334383439BB2535381F3108870BDC0462B
:1057100000A5FFFF70B5EFF31081012383F310881C
:1057200046F21C024000C2F20002135A83B94EF244
:1057300000044BF2404540F2FE36C4F20104C0F2D0
:105740000005A35B2D5A2B434AF200552B43A3536C
:10575000135A01339BB2135281F3108870BDC046B7
:1057600046F22402C2F200020300106810B558B1DC
:10577000032103338B4347F24001C318C2F20001F7
:105780008B4207D8136010BD46F24000C2F2000001
:105790001060EDE701F0ECFD0C23036001204042B6
:1057A000F1E7C04600BE704710B500F003F8FDF702
:1057B00029FBFEE7F0B54EF6005340F20005CEF2AD
:1057C0000003C0F2000583B09D600020FDF7FEFAE3
:1057D000FFF760FE6B460027DC1D27700120237851
:1057E000FFF798FFEFF31081012686F3108846F645
:1057F000FC73C4F204039A683C4802409A609A68B9
:1058000081F3108840F60001C4F204010A68D2074F
:10581000D20F22700A68D207D20F22700A68D2070C
:10582000D20F2270EFF3108186F3108880229868DF
:10583000520502439A609B6881F310880120FFF7AC
:105840003FFF0120FDF7C2FA40F60053284AC4F298
:1058500000039F8027491A802A6841F200005118EE
:105860009960DA6046F2000240F22011C4F20002B0
:10587000505246F23C0245F6B840C2F20002C2F273
:1058800000009E800021121A01F095FD44F20000F4
:1058900045F6A4424BF6B401C2F20000C2F2000287
:1058A000121AC0F2000101F07DFD45F69C4545F657
:1058B000A043C2F20005C2F200035B1B9E10002B46
:1058C00005DD002408CD01349847A642FADCFFF735
:1058D000CBFDFFF77FFE0220FDF778FAFFF7DCFE35
:1058E0000020FFF77FFE03B0F0BDC046FFFFFFEFD3
:1058F00000A5FFFF00FCFFFF1C2101231B049842B1
:1059000001D3000C10391B0A984201D3000A083950
:105910001B09984201D30009043902A2105C401807
:105920007047C046040302020101010100000000AB
:1059300000000000F0B54FF6FF75CE464746994689
:105940002B0015400E0029000340140C80B5070001
:10595000000C59434543634360435B190C0CE41846
:105960008C46A54203D980235B0298464044230C11
:1059700061461B1820044FF6FF740C4049467943DA
:105980007243C91800198918C0BCB946B046F0BDA9
:10599000F8B557464E46DE4645461C00E0B51700B2
:1059A0000D000903420F490A11436200520DC30062
:1059B00020039246400AE20F7C0F6E000443934698
:1059C000A146760DED0FFF00954200D1A0E05046B4
:1059D000301A8446002800DC81E05246002A00D1BB
:1059E000C0E040F2FF72964200D12CE180222000FC
:1059F0001204104381466246382A00DD73E11F2AF3
:105A000000DDDEE1604620224C46121A9440380048
:105A1000A04664469740E04044467A1E97410443BE
:105A20004A466046C2402743891ADC1BA3429B4179
:105A30005842081A030200D4DCE04002430A9846A8
:105A40004346002B00D10FE14046FFF755FF03000E
:105A5000083B202221004046D21A9840D1409C4069
:105A60000843B34200DA0EE19B1B5A1C1F2A00DDDB
:105A7000B2E02023010026009B1A9C409940D640AA
:105A8000631E9C413143D04000260C43630709D07C
:105A90000F232340042B05D0231DA342A4416442BD
:105AA00000191C00030200D4A7E040F2FF71013688
:105AB0008E4200D1C2E0CB4BE408184043074002BD
:105AC00023430E40040B3205ED0722432A431800FE
:105AD0001100F0BCBB46B246A946A046F8BD00285E
:105AE00050D05046801B8446002E00D030E1080084
:105AF0001843002800D1C3E16246501E012A00D19C
:105B00002CE240F2FF74A44500D1DCE1844627E199
:105B10005246B21A9446002A00DCB8E05246002AE7
:105B200048D040F2FF72964200D1C2E180222000AC
:105B30001204104381466246382A6EDC1F2A00DCBC
:105B40006FE14846203AD0406246202A05D064469C
:105B50004022121B4C46944027433C00621E944155
:105B600004435EE022003A43002A00D10FE1020024
:105B7000013A012800D193E140F2FF70844562D0E0
:105B8000944638E740F2FE74701C044200D0C8E02E
:105B900008001843002E00D078E1002800D1D0E1A1
:105BA00048463843002800D0E2E1DB084A071343A7
:105BB000CC082BE022003A43002A00D17EE1624665
:105BC0006046013A012800D1E6E040F2FF708445CA
:105BD00000D16EE19446AEE701001F3BD940202A78
:105BE00003D040239A1A90400443631E9C41002036
:105BF00000260C43630700D04AE7B446E408430795
:105C00002343C40840F2FF72944520D040F2FF764F
:105C100062462403240B164055E74C463C43621E63
:105C20009441E4189C429B41584240180302E1D53C
:105C300040F2FF7301369E4200D0B8E040F2FF769A
:105C4000002400233FE7DB084A071343CC081A006F
:105C50002243002A00D1EEE18022120314432403E0
:105C600040F2FF76240B2EE72000FFF745FE0300ED
:105C700018331F2B00DCECE6083884402000002499
:105C8000B34200DBF0E6574AF61A1040FEE682B354
:105C90005246921B9446002E00D1B1E040F2FF72B2
:105CA000924500D117E18022120411436246382A3E
:105CB00000DD17E11F2A00DD8BE1604620220C0089
:105CC000121A6646180093409440F0405A1E9341C1
:105CD000F14004431C438944E419BC4280414042E2
:105CE00056464844A2E74A463A4317007A1E97416F
:105CF0009BE640F2FE70721C104200D0A5E00A0044
:105D00001A43002E00D0FFE0002A00D14FE122000C
:105D10003A43002A00D04FE14A07DB081343CC087E
:105D200074E74846DC1B0A1AA34280414042804681
:105D300010004246801A02008046120200D595E00B
:105D400003002343002B00D07AE6002400255DE702
:105D500040F2FF70824500D1B5E08020000401438D
:105D60006046382840DC62461F2800DDBFE0202066
:105D70000C00801A1D0083408440D540D1404A4623
:105D8000581E83412C43521A914623432FE0DB08CF
:105D90004A071343CC0835E7DC199C429B41494430
:105DA0005B42C8180126030200D423E702260D4AED
:105DB00063081040012214401C43C3071C434008E1
:105DC00064E64C46203AD4406246202A05D060461C
:105DD0004022121A4846904007437A1E97412743B3
